{
  "contracts/RaceChainBetting.sol": {
    "RaceChainBetting": {
      "abi": [
        {
          "inputs": [
            {
              "internalType": "address",
              "name": "initialOwner",
              "type": "address"
            },
            {
              "internalType": "address",
              "name": "_tokenAddress",
              "type": "address"
            },
            {
              "internalType": "uint8",
              "name": "tokenDecimals",
              "type": "uint8"
            }
          ],
          "stateMutability": "nonpayable",
          "type": "constructor"
        },
        {
          "inputs": [
            {
              "internalType": "address",
              "name": "owner",
              "type": "address"
            }
          ],
          "name": "OwnableInvalidOwner",
          "type": "error"
        },
        {
          "inputs": [
            {
              "internalType": "address",
              "name": "account",
              "type": "address"
            }
          ],
          "name": "OwnableUnauthorizedAccount",
          "type": "error"
        },
        {
          "inputs": [],
          "name": "ReentrancyGuardReentrantCall",
          "type": "error"
        },
        {
          "inputs": [
            {
              "internalType": "address",
              "name": "token",
              "type": "address"
            }
          ],
          "name": "SafeERC20FailedOperation",
          "type": "error"
        },
        {
          "anonymous": false,
          "inputs": [
            {
              "indexed": true,
              "internalType": "address",
              "name": "user",
              "type": "address"
            },
            {
              "indexed": true,
              "internalType": "uint32",
              "name": "betId",
              "type": "uint32"
            },
            {
              "indexed": false,
              "internalType": "uint256",
              "name": "stake",
              "type": "uint256"
            },
            {
              "indexed": false,
              "internalType": "uint16",
              "name": "odds",
              "type": "uint16"
            },
            {
              "indexed": false,
              "internalType": "uint32",
              "name": "selectionId",
              "type": "uint32"
            }
          ],
          "name": "BetPlaced",
          "type": "event"
        },
        {
          "anonymous": false,
          "inputs": [
            {
              "indexed": true,
              "internalType": "uint32",
              "name": "betId",
              "type": "uint32"
            },
            {
              "indexed": true,
              "internalType": "address",
              "name": "user",
              "type": "address"
            },
            {
              "indexed": false,
              "internalType": "string",
              "name": "result",
              "type": "string"
            }
          ],
          "name": "BetSettled",
          "type": "event"
        },
        {
          "anonymous": false,
          "inputs": [
            {
              "indexed": true,
              "internalType": "address",
              "name": "previousOwner",
              "type": "address"
            },
            {
              "indexed": true,
              "internalType": "address",
              "name": "newOwner",
              "type": "address"
            }
          ],
          "name": "OwnershipTransferred",
          "type": "event"
        },
        {
          "anonymous": false,
          "inputs": [
            {
              "indexed": true,
              "internalType": "uint32",
              "name": "selectionId",
              "type": "uint32"
            },
            {
              "indexed": false,
              "internalType": "uint8",
              "name": "position",
              "type": "uint8"
            },
            {
              "indexed": false,
              "internalType": "uint16",
              "name": "impliedOdds",
              "type": "uint16"
            }
          ],
          "name": "SelectionOutcomeUpdated",
          "type": "event"
        },
        {
          "inputs": [
            {
              "internalType": "uint32",
              "name": "",
              "type": "uint32"
            }
          ],
          "name": "bets",
          "outputs": [
            {
              "internalType": "uint256",
              "name": "stake",
              "type": "uint256"
            },
            {
              "internalType": "uint16",
              "name": "odds",
              "type": "uint16"
            },
            {
              "internalType": "uint32",
              "name": "selectionId",
              "type": "uint32"
            },
            {
              "internalType": "address",
              "name": "user",
              "type": "address"
            }
          ],
          "stateMutability": "view",
          "type": "function"
        },
        {
          "inputs": [
            {
              "internalType": "uint32",
              "name": "selectionId",
              "type": "uint32"
            }
          ],
          "name": "clearSelectionOutcome",
          "outputs": [],
          "stateMutability": "nonpayable",
          "type": "function"
        },
        {
          "inputs": [],
          "name": "owner",
          "outputs": [
            {
              "internalType": "address",
              "name": "",
              "type": "address"
            }
          ],
          "stateMutability": "view",
          "type": "function"
        },
        {
          "inputs": [
            {
              "internalType": "uint32",
              "name": "betId",
              "type": "uint32"
            },
            {
              "internalType": "uint256",
              "name": "stake",
              "type": "uint256"
            },
            {
              "internalType": "uint16",
              "name": "odds",
              "type": "uint16"
            },
            {
              "internalType": "uint32",
              "name": "selectionId",
              "type": "uint32"
            }
          ],
          "name": "placeBet",
          "outputs": [],
          "stateMutability": "nonpayable",
          "type": "function"
        },
        {
          "inputs": [],
          "name": "renounceOwnership",
          "outputs": [],
          "stateMutability": "nonpayable",
          "type": "function"
        },
        {
          "inputs": [
            {
              "internalType": "uint32",
              "name": "",
              "type": "uint32"
            }
          ],
          "name": "selectionOutcomes",
          "outputs": [
            {
              "internalType": "uint8",
              "name": "position",
              "type": "uint8"
            },
            {
              "internalType": "uint16",
              "name": "impliedOdds",
              "type": "uint16"
            }
          ],
          "stateMutability": "view",
          "type": "function"
        },
        {
          "inputs": [
            {
              "internalType": "uint32",
              "name": "selectionId",
              "type": "uint32"
            },
            {
              "internalType": "uint8",
              "name": "position",
              "type": "uint8"
            },
            {
              "internalType": "uint16",
              "name": "impliedOdds",
              "type": "uint16"
            }
          ],
          "name": "setSelectionOutcome",
          "outputs": [],
          "stateMutability": "nonpayable",
          "type": "function"
        },
        {
          "inputs": [
            {
              "internalType": "uint32",
              "name": "betId",
              "type": "uint32"
            }
          ],
          "name": "settleBet",
          "outputs": [
            {
              "internalType": "bool",
              "name": "success",
              "type": "bool"
            }
          ],
          "stateMutability": "nonpayable",
          "type": "function"
        },
        {
          "inputs": [
            {
              "internalType": "address",
              "name": "newOwner",
              "type": "address"
            }
          ],
          "name": "transferOwnership",
          "outputs": [],
          "stateMutability": "nonpayable",
          "type": "function"
        }
      ],
      "evm": {
        "bytecode": {
          "linkReferences": {},
          "object": "60806040523461002b5761001a6100146100f4565b91610218565b6040516115a26103a682396115a290f35b600080fd5b634e487b7160e01b600052604160045260246000fd5b90601f01601f191681019081106001600160401b0382111761006757604052565b610030565b9061008061007960405190565b9283610046565b565b6001600160a01b031690565b90565b61009a81610082565b0361002b57565b9050519061008082610091565b60ff811661009a565b90505190610080826100ae565b909160608284031261002b5761008e6100dd84846100a1565b9360406100ed82602087016100a1565b94016100b7565b610112611948803803806101078161006c565b9283398101906100c4565b909192565b61008261008e61008e9290565b61008e90610117565b6020808252601d908201527f546f6b656e20616464726573732063616e6e6f74206265207a65726f21000000604082015260600190565b1561016b57565b60405162461bcd60e51b8152806101846004820161012d565b0390fd5b61008e90610082906001600160a01b031682565b61008e90610188565b61008e9061019c565b90610100600160a81b039060081b5b9181191691161790565b906101d761008e6101de926101a5565b82546101ae565b9055565b9060ff906101bd565b6101fb61008e61008e9260ff1690565b60ff1690565b9061021161008e6101de926101eb565b82546101e2565b610256610080939261022c61025d9361029c565b61025161024161023c6000610124565b610082565b61024a83610082565b1415610164565b6101a5565b60026101c7565b6002610201565b61008e61008e61008e9290565b61008e6001610264565b90600019906101bd565b9061029561008e6101de92610264565b825461027b565b6102a5906102d4565b6100806102b0610271565b6001610285565b6102c090610082565b9052565b60208101929161008091906102b7565b60006102df81610124565b6102e881610082565b6102f184610082565b1461030157505061008090610353565b631e4fbdf760e01b8252819061018490600483016102c4565b61008e90610082565b61008e905461031a565b906001600160a01b03906101bd565b9061034c61008e6101de926101a5565b825461032d565b61037461036e6103636000610323565b61025184600061033c565b916101a5565b907f8be0079c531659141344cd1fd0a4f28419497f9722a3daafe3b4186f6b6457e061039f60405190565b600090a356fe6080604052600436101561001257600080fd5b60003560e01c8063034d4960146100a257806303f226141461009d578063672d3a7414610098578063715018a614610093578063776199861461008e5780637b2542b9146100895780638da5cb5b14610084578063ea335ea81461007f5763f2fde38b036100a757610479565b610433565b6103bd565b61037c565b610264565b61024c565b610228565b61018a565b6100e1565b600080fd5b63ffffffff81165b036100a757565b905035906100c8826100ac565b565b906020828203126100a7576100de916100bb565b90565b346100a7576100f96100f43660046100ca565b61056b565b60405180805b0390f35b6101166100de6100de9263ffffffff1690565b63ffffffff1690565b9061012990610103565b600052602052604060002090565b6100de905b60ff1690565b6100de9054610137565b6100de9060081c5b61ffff1690565b6100de905461014c565b61017090600461011f565b906100de600061017f84610142565b930161015b565b9052565b346100a7576101a261019d3660046100ca565b610165565b906100ff6101af60405190565b60ff909216825261ffff90921660208201529081906040820190565b60ff81166100b4565b905035906100c8826101cb565b61ffff81166100b4565b905035906100c8826101e1565b90916060828403126100a7576100de61021184846100bb565b93604061022182602087016101d4565b94016101eb565b346100a7576100f961023b3660046101f8565b916106f2565b60009103126100a757565b346100a75761025c366004610241565b6100f9610735565b346100a7576100ff61027f61027a3660046100ca565b610ca2565b60405191829182901515815260200190565b6100de9081565b6100de9054610291565b6100de90610154565b6100de90546102a2565b6100de9060101c610116565b6100de90546102b5565b6001600160a01b031690565b6100de9060301c6102cb565b6102cb565b6100de90546102d7565b6102fd90600361011f565b9061030782610298565b91610314600182016102ab565b916100de60016103258185016102c1565b93016102e8565b6100de906102cb565b6101869061032c565b6103756100c89461036860609498979561035d608086019a6000870152565b61ffff166020850152565b63ffffffff166040830152565b0190610335565b346100a7576100ff6103976103923660046100ca565b6102f2565b906103a494929460405190565b9485948561033e565b6020810192916100c89190610335565b346100a7576103cd366004610241565b6100ff6103d8610cb7565b604051918291826103ad565b806100b4565b905035906100c8826103e4565b6080818303126100a75761040b82826100bb565b926100de61041c84602085016103ea565b93606061042c82604087016101eb565b94016100bb565b346100a7576100f96104463660046103f7565b92919091611046565b6100b48161032c565b905035906100c88261044f565b906020828203126100a7576100de91610458565b346100a7576100f961048c366004610465565b6110a4565b6100c89061049d6110ad565b610525565b61013c6100de6100de9290565b156104b657565b60405162461bcd60e51b815260206004820152601960248201527814d95b1958dd1a5bdb881bdd5d18dbdb59481b9bdd081cd95d603a1b604482015280606481015b0390fd5b634e487b7160e01b600052600060045260246000fd5b906000036105205760009055565b6104fc565b60006105666100c89261055f6105468461054084600461011f565b01610142565b610559610552866104a2565b9160ff1690565b116104af565b600461011f565b610512565b6100c890610491565b906100c892916105826110ad565b610689565b634e487b7160e01b600052604160045260246000fd5b90601f01601f191681019081106001600160401b038211176105be57604052565b610587565b906100c86105d060405190565b928361059d565b6100de60406105c3565b9060ff905b9181191691161790565b61013c6100de6100de9260ff1690565b906106106100de610617926105f0565b82546105e1565b9055565b9062ffff009060081b6105e6565b6101546100de6100de9261ffff1690565b9061064a6100de61061792610629565b825461061b565b6100c8916106799060209061067061066a825160ff1690565b85610600565b015161ffff1690565b9061063a565b906100c891610651565b916106e07fe9b29d792a9405688baf68c8fbd5d83724c808b47931b1b304d21d4815c2d9c192936106db6106bb6105d7565b60ff8716815261ffff851660208201526106d683600461011f565b61067f565b610103565b926106ed6101af60405190565b0390a2565b906100c89291610574565b6107056110ad565b6100c8610723565b6102e36100de6100de9290565b6100de9061070d565b6100c8610730600061071a565b61110f565b6100c86106fd565b9061074f9161074a61116b565b610992565b906100c86111b5565b906101869061032c565b6100de60806105c3565b906100c86107c8600161077d610762565b9461078e61078a82610298565b8752565b6107a761079c8383016102ab565b61ffff166020880152565b6107c26107b58383016102c1565b63ffffffff166040880152565b016102e8565b60608401610758565b6100de9061076c565b6100de905161032c565b156107eb57565b60405162461bcd60e51b8152602060048201526017602482015276151a1a5cc818995d08191bd95cc81b9bdd08195e1a5cdd604a1b6044820152606490fd5b1561083157565b60405162461bcd60e51b815260206004820152602d60248201527f556e617574686f72697a65643a206f6e6c79206f776e6572206f72206265747460448201526c6f722063616e20736574746c6560981b6064820152608490fd5b1561089357565b60405162461bcd60e51b815260206004820152602260248201527f4f7574636f6d65206e6f742073657420666f7220746869732073656c6563746960448201526137b760f11b6064820152608490fd5b9160001960089290920291821b911b6105e6565b6100de6100de6100de9290565b91906109156100de610617936108f7565b9083546108e3565b6100c891600091610904565b600090600190610939838261091d565b0155565b90600003610520576100c890610929565b6102e36100de6100de926102cb565b6100de9061094e565b6100de9061095d565b6101546100de6100de9290565b6100de9060081c6102cb565b6100de905461097c565b5060036109a76109a2838361011f565b6107d1565b906060820191836109b7846107da565b926109df6000946109d86109d26109cd8861071a565b61032c565b9161032c565b14156107e4565b6109ea6109cd610cb7565b6109f33361032c565b148015610c81575b610a049061082a565b604083016004610a3b610a2887610540610a22865163ffffffff1690565b8561011f565b610a34610552896104a2565b141561088c565b610a5686610540610a50855163ffffffff1690565b8461011f565b610a6060326104a2565b60ff82161115610b195750505083610ab793610a8f610abd96610a8a610ac39996610ab29661011f565b61093d565b610aac610a9c6002610988565b92610aa6866107da565b92015190565b9161125b565b6107da565b92610103565b91610966565b9060008051602061154d833981519152610adc60405190565b6020808252601b908201527a2132ba103b37b4b232b2161039ba30b5b2903932ba3ab93732b21760291b604082015280606081015b0390a3600190565b610b2e610552600198969497989593956104a2565b03610c245794610ab79484610ab294610b55610ba39a97610a8a610b8a97610abd9c61011f565b602084015161ffff169283610b74610b6c8561096f565b9161ffff1690565b14610bf6575b5050909101516111f2565b6111f2565b610b946002610988565b610b9d846107da565b9061125b565b9060008051602061154d833981519152610bbc60405190565b6020808252601c908201527b42657420776f6e202d207061796f7574207375636365737366756c2160201b60408201528060608101610b11565b610b859350610c17610c1d92610c1185935163ffffffff1690565b9061011f565b0161015b565b9138610b7a565b610abd9550610ab79450610ab29250610c42969391610a8a9161011f565b9060008051602061154d833981519152610c5b60405190565b60208082526008908201526710995d081b1bdcdd60c21b60408201528060608101610b11565b50610a04610c916109cd876107da565b610c9a3361032c565b1490506109fb565b6100de90600061073d565b6100de905461032c565b6100de6000610cad565b90610cd5939291610cd061116b565b610ee1565b6100c86111b5565b15610ce457565b60405162461bcd60e51b815260206004820152602160248201527f54686973206265742068617320616c7265616479206265656e20706c616365646044820152602160f81b6064820152608490fd5b15610d3a57565b60405162461bcd60e51b81526020600482015260156024820152745374616b652063616e6e6f74206265207a65726f2160581b6044820152606490fd5b15610d7e57565b60405162461bcd60e51b815260206004820152603560248201527f4f646473206d75737420626520696d706c6965642074797065204f5220666978604482015274656420747970652028312e30302d3530302e30302960581b6064820152608490fd5b90600019906105e6565b90610dfb6100de610617926108f7565b8254610de1565b9061ffff906105e6565b90610e1c6100de61061792610629565b8254610e02565b9065ffffffff00009060101b6105e6565b90610e446100de61061792610103565b8254610e23565b90600160301b600160d01b039060301b6105e6565b90610e706100de61061792610966565b8254610e4b565b90610ed1606060016100c894610e97610e91600087015190565b82610deb565b0192610eb1610eab602083015161ffff1690565b85610e0c565b610ecb610ec5604083015163ffffffff1690565b85610e34565b016107da565b90610e60565b906100c891610e77565b917f956756997b62611747930036f89443fbd4f9b9ca9c5f5d9e30d82fd14203c88291610fa9610f1760016107c287600361011f565b610f32600091610f2c6109d26109cd8561071a565b14610cdd565b610f45610f3e826108f7565b8411610d33565b610f4e8161096f565b61ffff8516148015611012575b610f6490610d77565b610f7683610f70610762565b92830152565b61ffff8416602082015263ffffffff87166040820152610f993360608301610758565b610fa486600361011f565b610ed7565b610fc881610fb76002610988565b610fc030610966565b9033906112cd565b61100d610fdd610fd733610966565b95610103565b95610fe760405190565b9384938490815261ffff91909116602082015263ffffffff909116604082015260600190565b0390a3565b5061101d606461096f565b61ffff8516118015610f5b5750610f6461103861c35061096f565b61ffff861611159050610f5b565b906100c8939291610cc1565b6100c89061105e6110ad565b60006110698161071a565b6110728161032c565b61107b8461032c565b1461108b5750506100c89061110f565b631e4fbdf760e01b825281906104f890600483016103ad565b6100c890611052565b6110b5610cb7565b33906110c36109d28361032c565b036110cb5750565b63118cdaa760e01b6000908152906110e49060046103ad565b036000fd5b906001600160a01b03906105e6565b906111086100de61061792610966565b82546110e9565b61112f610abd61111f6000610cad565b61112a8460006110f8565b610966565b907f8be0079c531659141344cd1fd0a4f28419497f9722a3daafe3b4186f6b6457e061115a60405190565b808061100d565b6100de60026108f7565b6111756001610298565b61117d611161565b908190611189565b9190565b14611199576100c8906001610deb565b633ee5aeb560e01b6000908152600490fd5b6100de60016108f7565b6100c86111c06111ab565b6001610deb565b6100de60646104a2565b6100de6100de6100de9261ffff1690565b6100de6100de6100de9260ff1690565b6100de9161121061120a6112046111c7565b926111d1565b916111e2565b9161133c565b61122f6112296100de9263ffffffff1690565b60e01b90565b6001600160e01b03191690565b9160206100c892949361125760408201966000830190610335565b0152565b61129e60049261128f6100c89561127563a9059cbb611216565b9261127f60405190565b968794602086019081520161123c565b6020820181038252038361059d565b611474565b6040906112576100c894969593966112c360608401986000850190610335565b6020830190610335565b9061129e9061128f6100c8956004956112e96323b872dd611216565b936112f360405190565b97889560208701908152016112a3565b634e487b7160e01b600052601260045260246000fd5b8115611323570490565b611303565b6100de60126108f7565b6100de60116108f7565b9060009161134a828261150b565b929091600094611359866108f7565b84146114655783871115611439578593876113a9946113bc97946001946100de9b9a50500990838211900392039561139881611394876108f7565b0390565b811680808093049804950304010290565b17916113bc6113c0826113bc60036108f7565b0290565b61139461143361142d61141e61140f6114006113f16002976113e1896108f7565b186113bc8b82026113948b6108f7565b6113bc8a82026113948a6108f7565b6113bc898202611394896108f7565b6113bc888202611394886108f7565b6113bc878202611394876108f7565b80950290565b916108f7565b61146087611449611185896108f7565b14611452611328565b61145a611332565b9161151f565b61153b565b505050506100de929150611319565b906000602091611482600090565b50828151910182855af1156114ff573d906000516000926114a5611185856108f7565b036114eb57506114b481610966565b3b6114c1611185846108f7565b145b6114cb575050565b6104f86114d88392610966565b635274afe760e01b8352600483016103ad565b6114f861118560016108f7565b14156114c3565b6040513d6000823e3d90fd5b906000198183099102908180821091030391565b6113bc836115379361152f600090565b501891151590565b1890565b634e487b716000526020526024601cfdfe8fe42308c6f82f7ab2f5e6928b910a862b18c150e427c3ac0e749e2f7c51867fa26469706673582212208decc9338beba0b7be1ab2d8d4a92fd7d308d1ec6d139b6cdcb7b549da9a5a6864736f6c634300081c0033",
          "opcodes": "PUSH1 0x80 PUSH1 0x40 MSTORE CALLVALUE PUSH2 0x2B JUMPI PUSH2 0x1A PUSH2 0x14 PUSH2 0xF4 JUMP JUMPDEST SWAP2 PUSH2 0x218 JUMP JUMPDEST PUSH1 0x40 MLOAD PUSH2 0x15A2 PUSH2 0x3A6 DUP3 CODECOPY PUSH2 0x15A2 SWAP1 RETURN JUMPDEST PUSH1 0x0 DUP1 REVERT JUMPDEST PUSH4 0x4E487B71 PUSH1 0xE0 SHL PUSH1 0x0 MSTORE PUSH1 0x41 PUSH1 0x4 MSTORE PUSH1 0x24 PUSH1 0x0 REVERT JUMPDEST SWAP1 PUSH1 0x1F ADD PUSH1 0x1F NOT AND DUP2 ADD SWAP1 DUP2 LT PUSH1 0x1 PUSH1 0x1 PUSH1 0x40 SHL SUB DUP3 GT OR PUSH2 0x67 JUMPI PUSH1 0x40 MSTORE JUMP JUMPDEST PUSH2 0x30 JUMP JUMPDEST SWAP1 PUSH2 0x80 PUSH2 0x79 PUSH1 0x40 MLOAD SWAP1 JUMP JUMPDEST SWAP3 DUP4 PUSH2 0x46 JUMP JUMPDEST JUMP JUMPDEST PUSH1 0x1 PUSH1 0x1 PUSH1 0xA0 SHL SUB AND SWAP1 JUMP JUMPDEST SWAP1 JUMP JUMPDEST PUSH2 0x9A DUP2 PUSH2 0x82 JUMP JUMPDEST SUB PUSH2 0x2B JUMPI JUMP JUMPDEST SWAP1 POP MLOAD SWAP1 PUSH2 0x80 DUP3 PUSH2 0x91 JUMP JUMPDEST PUSH1 0xFF DUP2 AND PUSH2 0x9A JUMP JUMPDEST SWAP1 POP MLOAD SWAP1 PUSH2 0x80 DUP3 PUSH2 0xAE JUMP JUMPDEST SWAP1 SWAP2 PUSH1 0x60 DUP3 DUP5 SUB SLT PUSH2 0x2B JUMPI PUSH2 0x8E PUSH2 0xDD DUP5 DUP5 PUSH2 0xA1 JUMP JUMPDEST SWAP4 PUSH1 0x40 PUSH2 0xED DUP3 PUSH1 0x20 DUP8 ADD PUSH2 0xA1 JUMP JUMPDEST SWAP5 ADD PUSH2 0xB7 JUMP JUMPDEST PUSH2 0x112 PUSH2 0x1948 DUP1 CODESIZE SUB DUP1 PUSH2 0x107 DUP2 PUSH2 0x6C JUMP JUMPDEST SWAP3 DUP4 CODECOPY DUP2 ADD SWAP1 PUSH2 0xC4 JUMP JUMPDEST SWAP1 SWAP2 SWAP3 JUMP JUMPDEST PUSH2 0x82 PUSH2 0x8E PUSH2 0x8E SWAP3 SWAP1 JUMP JUMPDEST PUSH2 0x8E SWAP1 PUSH2 0x117 JUMP JUMPDEST PUSH1 0x20 DUP1 DUP3 MSTORE PUSH1 0x1D SWAP1 DUP3 ADD MSTORE PUSH32 0x546F6B656E20616464726573732063616E6E6F74206265207A65726F21000000 PUSH1 0x40 DUP3 ADD MSTORE PUSH1 0x60 ADD SWAP1 JUMP JUMPDEST ISZERO PUSH2 0x16B JUMPI JUMP JUMPDEST PUSH1 0x40 MLOAD PUSH3 0x461BCD PUSH1 0xE5 SHL DUP2 MSTORE DUP1 PUSH2 0x184 PUSH1 0x4 DUP3 ADD PUSH2 0x12D JUMP JUMPDEST SUB SWAP1 REVERT JUMPDEST PUSH2 0x8E SWAP1 PUSH2 0x82 SWAP1 PUSH1 0x1 PUSH1 0x1 PUSH1 0xA0 SHL SUB AND DUP3 JUMP JUMPDEST PUSH2 0x8E SWAP1 PUSH2 0x188 JUMP JUMPDEST PUSH2 0x8E SWAP1 PUSH2 0x19C JUMP JUMPDEST SWAP1 PUSH2 0x100 PUSH1 0x1 PUSH1 0xA8 SHL SUB SWAP1 PUSH1 0x8 SHL JUMPDEST SWAP2 DUP2 NOT AND SWAP2 AND OR SWAP1 JUMP JUMPDEST SWAP1 PUSH2 0x1D7 PUSH2 0x8E PUSH2 0x1DE SWAP3 PUSH2 0x1A5 JUMP JUMPDEST DUP3 SLOAD PUSH2 0x1AE JUMP JUMPDEST SWAP1 SSTORE JUMP JUMPDEST SWAP1 PUSH1 0xFF SWAP1 PUSH2 0x1BD JUMP JUMPDEST PUSH2 0x1FB PUSH2 0x8E PUSH2 0x8E SWAP3 PUSH1 0xFF AND SWAP1 JUMP JUMPDEST PUSH1 0xFF AND SWAP1 JUMP JUMPDEST SWAP1 PUSH2 0x211 PUSH2 0x8E PUSH2 0x1DE SWAP3 PUSH2 0x1EB JUMP JUMPDEST DUP3 SLOAD PUSH2 0x1E2 JUMP JUMPDEST PUSH2 0x256 PUSH2 0x80 SWAP4 SWAP3 PUSH2 0x22C PUSH2 0x25D SWAP4 PUSH2 0x29C JUMP JUMPDEST PUSH2 0x251 PUSH2 0x241 PUSH2 0x23C PUSH1 0x0 PUSH2 0x124 JUMP JUMPDEST PUSH2 0x82 JUMP JUMPDEST PUSH2 0x24A DUP4 PUSH2 0x82 JUMP JUMPDEST EQ ISZERO PUSH2 0x164 JUMP JUMPDEST PUSH2 0x1A5 JUMP JUMPDEST PUSH1 0x2 PUSH2 0x1C7 JUMP JUMPDEST PUSH1 0x2 PUSH2 0x201 JUMP JUMPDEST PUSH2 0x8E PUSH2 0x8E PUSH2 0x8E SWAP3 SWAP1 JUMP JUMPDEST PUSH2 0x8E PUSH1 0x1 PUSH2 0x264 JUMP JUMPDEST SWAP1 PUSH1 0x0 NOT SWAP1 PUSH2 0x1BD JUMP JUMPDEST SWAP1 PUSH2 0x295 PUSH2 0x8E PUSH2 0x1DE SWAP3 PUSH2 0x264 JUMP JUMPDEST DUP3 SLOAD PUSH2 0x27B JUMP JUMPDEST PUSH2 0x2A5 SWAP1 PUSH2 0x2D4 JUMP JUMPDEST PUSH2 0x80 PUSH2 0x2B0 PUSH2 0x271 JUMP JUMPDEST PUSH1 0x1 PUSH2 0x285 JUMP JUMPDEST PUSH2 0x2C0 SWAP1 PUSH2 0x82 JUMP JUMPDEST SWAP1 MSTORE JUMP JUMPDEST PUSH1 0x20 DUP2 ADD SWAP3 SWAP2 PUSH2 0x80 SWAP2 SWAP1 PUSH2 0x2B7 JUMP JUMPDEST PUSH1 0x0 PUSH2 0x2DF DUP2 PUSH2 0x124 JUMP JUMPDEST PUSH2 0x2E8 DUP2 PUSH2 0x82 JUMP JUMPDEST PUSH2 0x2F1 DUP5 PUSH2 0x82 JUMP JUMPDEST EQ PUSH2 0x301 JUMPI POP POP PUSH2 0x80 SWAP1 PUSH2 0x353 JUMP JUMPDEST PUSH4 0x1E4FBDF7 PUSH1 0xE0 SHL DUP3 MSTORE DUP2 SWAP1 PUSH2 0x184 SWAP1 PUSH1 0x4 DUP4 ADD PUSH2 0x2C4 JUMP JUMPDEST PUSH2 0x8E SWAP1 PUSH2 0x82 JUMP JUMPDEST PUSH2 0x8E SWAP1 SLOAD PUSH2 0x31A JUMP JUMPDEST SWAP1 PUSH1 0x1 PUSH1 0x1 PUSH1 0xA0 SHL SUB SWAP1 PUSH2 0x1BD JUMP JUMPDEST SWAP1 PUSH2 0x34C PUSH2 0x8E PUSH2 0x1DE SWAP3 PUSH2 0x1A5 JUMP JUMPDEST DUP3 SLOAD PUSH2 0x32D JUMP JUMPDEST PUSH2 0x374 PUSH2 0x36E PUSH2 0x363 PUSH1 0x0 PUSH2 0x323 JUMP JUMPDEST PUSH2 0x251 DUP5 PUSH1 0x0 PUSH2 0x33C JUMP JUMPDEST SWAP2 PUSH2 0x1A5 JUMP JUMPDEST SWAP1 PUSH32 0x8BE0079C531659141344CD1FD0A4F28419497F9722A3DAAFE3B4186F6B6457E0 PUSH2 0x39F PUSH1 0x40 MLOAD SWAP1 JUMP JUMPDEST PUSH1 0x0 SWAP1 LOG3 JUMP INVALID PUSH1 0x80 PUSH1 0x40 MSTORE PUSH1 0x4 CALLDATASIZE LT ISZERO PUSH2 0x12 JUMPI PUSH1 0x0 DUP1 REVERT JUMPDEST PUSH1 0x0 CALLDATALOAD PUSH1 0xE0 SHR DUP1 PUSH4 0x34D4960 EQ PUSH2 0xA2 JUMPI DUP1 PUSH4 0x3F22614 EQ PUSH2 0x9D JUMPI DUP1 PUSH4 0x672D3A74 EQ PUSH2 0x98 JUMPI DUP1 PUSH4 0x715018A6 EQ PUSH2 0x93 JUMPI DUP1 PUSH4 0x77619986 EQ PUSH2 0x8E JUMPI DUP1 PUSH4 0x7B2542B9 EQ PUSH2 0x89 JUMPI DUP1 PUSH4 0x8DA5CB5B EQ PUSH2 0x84 JUMPI DUP1 PUSH4 0xEA335EA8 EQ PUSH2 0x7F JUMPI PUSH4 0xF2FDE38B SUB PUSH2 0xA7 JUMPI PUSH2 0x479 JUMP JUMPDEST PUSH2 0x433 JUMP JUMPDEST PUSH2 0x3BD JUMP JUMPDEST PUSH2 0x37C JUMP JUMPDEST PUSH2 0x264 JUMP JUMPDEST PUSH2 0x24C JUMP JUMPDEST PUSH2 0x228 JUMP JUMPDEST PUSH2 0x18A JUMP JUMPDEST PUSH2 0xE1 JUMP JUMPDEST PUSH1 0x0 DUP1 REVERT JUMPDEST PUSH4 0xFFFFFFFF DUP2 AND JUMPDEST SUB PUSH2 0xA7 JUMPI JUMP JUMPDEST SWAP1 POP CALLDATALOAD SWAP1 PUSH2 0xC8 DUP3 PUSH2 0xAC JUMP JUMPDEST JUMP JUMPDEST SWAP1 PUSH1 0x20 DUP3 DUP3 SUB SLT PUSH2 0xA7 JUMPI PUSH2 0xDE SWAP2 PUSH2 0xBB JUMP JUMPDEST SWAP1 JUMP JUMPDEST CALLVALUE PUSH2 0xA7 JUMPI PUSH2 0xF9 PUSH2 0xF4 CALLDATASIZE PUSH1 0x4 PUSH2 0xCA JUMP JUMPDEST PUSH2 0x56B JUMP JUMPDEST PUSH1 0x40 MLOAD DUP1 DUP1 JUMPDEST SUB SWAP1 RETURN JUMPDEST PUSH2 0x116 PUSH2 0xDE PUSH2 0xDE SWAP3 PUSH4 0xFFFFFFFF AND SWAP1 JUMP JUMPDEST PUSH4 0xFFFFFFFF AND SWAP1 JUMP JUMPDEST SWAP1 PUSH2 0x129 SWAP1 PUSH2 0x103 JUMP JUMPDEST PUSH1 0x0 MSTORE PUSH1 0x20 MSTORE PUSH1 0x40 PUSH1 0x0 KECCAK256 SWAP1 JUMP JUMPDEST PUSH2 0xDE SWAP1 JUMPDEST PUSH1 0xFF AND SWAP1 JUMP JUMPDEST PUSH2 0xDE SWAP1 SLOAD PUSH2 0x137 JUMP JUMPDEST PUSH2 0xDE SWAP1 PUSH1 0x8 SHR JUMPDEST PUSH2 0xFFFF AND SWAP1 JUMP JUMPDEST PUSH2 0xDE SWAP1 SLOAD PUSH2 0x14C JUMP JUMPDEST PUSH2 0x170 SWAP1 PUSH1 0x4 PUSH2 0x11F JUMP JUMPDEST SWAP1 PUSH2 0xDE PUSH1 0x0 PUSH2 0x17F DUP5 PUSH2 0x142 JUMP JUMPDEST SWAP4 ADD PUSH2 0x15B JUMP JUMPDEST SWAP1 MSTORE JUMP JUMPDEST CALLVALUE PUSH2 0xA7 JUMPI PUSH2 0x1A2 PUSH2 0x19D CALLDATASIZE PUSH1 0x4 PUSH2 0xCA JUMP JUMPDEST PUSH2 0x165 JUMP JUMPDEST SWAP1 PUSH2 0xFF PUSH2 0x1AF PUSH1 0x40 MLOAD SWAP1 JUMP JUMPDEST PUSH1 0xFF SWAP1 SWAP3 AND DUP3 MSTORE PUSH2 0xFFFF SWAP1 SWAP3 AND PUSH1 0x20 DUP3 ADD MSTORE SWAP1 DUP2 SWAP1 PUSH1 0x40 DUP3 ADD SWAP1 JUMP JUMPDEST PUSH1 0xFF DUP2 AND PUSH2 0xB4 JUMP JUMPDEST SWAP1 POP CALLDATALOAD SWAP1 PUSH2 0xC8 DUP3 PUSH2 0x1CB JUMP JUMPDEST PUSH2 0xFFFF DUP2 AND PUSH2 0xB4 JUMP JUMPDEST SWAP1 POP CALLDATALOAD SWAP1 PUSH2 0xC8 DUP3 PUSH2 0x1E1 JUMP JUMPDEST SWAP1 SWAP2 PUSH1 0x60 DUP3 DUP5 SUB SLT PUSH2 0xA7 JUMPI PUSH2 0xDE PUSH2 0x211 DUP5 DUP5 PUSH2 0xBB JUMP JUMPDEST SWAP4 PUSH1 0x40 PUSH2 0x221 DUP3 PUSH1 0x20 DUP8 ADD PUSH2 0x1D4 JUMP JUMPDEST SWAP5 ADD PUSH2 0x1EB JUMP JUMPDEST CALLVALUE PUSH2 0xA7 JUMPI PUSH2 0xF9 PUSH2 0x23B CALLDATASIZE PUSH1 0x4 PUSH2 0x1F8 JUMP JUMPDEST SWAP2 PUSH2 0x6F2 JUMP JUMPDEST PUSH1 0x0 SWAP2 SUB SLT PUSH2 0xA7 JUMPI JUMP JUMPDEST CALLVALUE PUSH2 0xA7 JUMPI PUSH2 0x25C CALLDATASIZE PUSH1 0x4 PUSH2 0x241 JUMP JUMPDEST PUSH2 0xF9 PUSH2 0x735 JUMP JUMPDEST CALLVALUE PUSH2 0xA7 JUMPI PUSH2 0xFF PUSH2 0x27F PUSH2 0x27A CALLDATASIZE PUSH1 0x4 PUSH2 0xCA JUMP JUMPDEST PUSH2 0xCA2 JUMP JUMPDEST PUSH1 0x40 MLOAD SWAP2 DUP3 SWAP2 DUP3 SWAP1 ISZERO ISZERO DUP2 MSTORE PUSH1 0x20 ADD SWAP1 JUMP JUMPDEST PUSH2 0xDE SWAP1 DUP2 JUMP JUMPDEST PUSH2 0xDE SWAP1 SLOAD PUSH2 0x291 JUMP JUMPDEST PUSH2 0xDE SWAP1 PUSH2 0x154 JUMP JUMPDEST PUSH2 0xDE SWAP1 SLOAD PUSH2 0x2A2 JUMP JUMPDEST PUSH2 0xDE SWAP1 PUSH1 0x10 SHR PUSH2 0x116 JUMP JUMPDEST PUSH2 0xDE SWAP1 SLOAD PUSH2 0x2B5 JUMP JUMPDEST PUSH1 0x1 PUSH1 0x1 PUSH1 0xA0 SHL SUB AND SWAP1 JUMP JUMPDEST PUSH2 0xDE SWAP1 PUSH1 0x30 SHR PUSH2 0x2CB JUMP JUMPDEST PUSH2 0x2CB JUMP JUMPDEST PUSH2 0xDE SWAP1 SLOAD PUSH2 0x2D7 JUMP JUMPDEST PUSH2 0x2FD SWAP1 PUSH1 0x3 PUSH2 0x11F JUMP JUMPDEST SWAP1 PUSH2 0x307 DUP3 PUSH2 0x298 JUMP JUMPDEST SWAP2 PUSH2 0x314 PUSH1 0x1 DUP3 ADD PUSH2 0x2AB JUMP JUMPDEST SWAP2 PUSH2 0xDE PUSH1 0x1 PUSH2 0x325 DUP2 DUP6 ADD PUSH2 0x2C1 JUMP JUMPDEST SWAP4 ADD PUSH2 0x2E8 JUMP JUMPDEST PUSH2 0xDE SWAP1 PUSH2 0x2CB JUMP JUMPDEST PUSH2 0x186 SWAP1 PUSH2 0x32C JUMP JUMPDEST PUSH2 0x375 PUSH2 0xC8 SWAP5 PUSH2 0x368 PUSH1 0x60 SWAP5 SWAP9 SWAP8 SWAP6 PUSH2 0x35D PUSH1 0x80 DUP7 ADD SWAP11 PUSH1 0x0 DUP8 ADD MSTORE JUMP JUMPDEST PUSH2 0xFFFF AND PUSH1 0x20 DUP6 ADD MSTORE JUMP JUMPDEST PUSH4 0xFFFFFFFF AND PUSH1 0x40 DUP4 ADD MSTORE JUMP JUMPDEST ADD SWAP1 PUSH2 0x335 JUMP JUMPDEST CALLVALUE PUSH2 0xA7 JUMPI PUSH2 0xFF PUSH2 0x397 PUSH2 0x392 CALLDATASIZE PUSH1 0x4 PUSH2 0xCA JUMP JUMPDEST PUSH2 0x2F2 JUMP JUMPDEST SWAP1 PUSH2 0x3A4 SWAP5 SWAP3 SWAP5 PUSH1 0x40 MLOAD SWAP1 JUMP JUMPDEST SWAP5 DUP6 SWAP5 DUP6 PUSH2 0x33E JUMP JUMPDEST PUSH1 0x20 DUP2 ADD SWAP3 SWAP2 PUSH2 0xC8 SWAP2 SWAP1 PUSH2 0x335 JUMP JUMPDEST CALLVALUE PUSH2 0xA7 JUMPI PUSH2 0x3CD CALLDATASIZE PUSH1 0x4 PUSH2 0x241 JUMP JUMPDEST PUSH2 0xFF PUSH2 0x3D8 PUSH2 0xCB7 JUMP JUMPDEST PUSH1 0x40 MLOAD SWAP2 DUP3 SWAP2 DUP3 PUSH2 0x3AD JUMP JUMPDEST DUP1 PUSH2 0xB4 JUMP JUMPDEST SWAP1 POP CALLDATALOAD SWAP1 PUSH2 0xC8 DUP3 PUSH2 0x3E4 JUMP JUMPDEST PUSH1 0x80 DUP2 DUP4 SUB SLT PUSH2 0xA7 JUMPI PUSH2 0x40B DUP3 DUP3 PUSH2 0xBB JUMP JUMPDEST SWAP3 PUSH2 0xDE PUSH2 0x41C DUP5 PUSH1 0x20 DUP6 ADD PUSH2 0x3EA JUMP JUMPDEST SWAP4 PUSH1 0x60 PUSH2 0x42C DUP3 PUSH1 0x40 DUP8 ADD PUSH2 0x1EB JUMP JUMPDEST SWAP5 ADD PUSH2 0xBB JUMP JUMPDEST CALLVALUE PUSH2 0xA7 JUMPI PUSH2 0xF9 PUSH2 0x446 CALLDATASIZE PUSH1 0x4 PUSH2 0x3F7 JUMP JUMPDEST SWAP3 SWAP2 SWAP1 SWAP2 PUSH2 0x1046 JUMP JUMPDEST PUSH2 0xB4 DUP2 PUSH2 0x32C JUMP JUMPDEST SWAP1 POP CALLDATALOAD SWAP1 PUSH2 0xC8 DUP3 PUSH2 0x44F JUMP JUMPDEST SWAP1 PUSH1 0x20 DUP3 DUP3 SUB SLT PUSH2 0xA7 JUMPI PUSH2 0xDE SWAP2 PUSH2 0x458 JUMP JUMPDEST CALLVALUE PUSH2 0xA7 JUMPI PUSH2 0xF9 PUSH2 0x48C CALLDATASIZE PUSH1 0x4 PUSH2 0x465 JUMP JUMPDEST PUSH2 0x10A4 JUMP JUMPDEST PUSH2 0xC8 SWAP1 PUSH2 0x49D PUSH2 0x10AD JUMP JUMPDEST PUSH2 0x525 JUMP JUMPDEST PUSH2 0x13C PUSH2 0xDE PUSH2 0xDE SWAP3 SWAP1 JUMP JUMPDEST ISZERO PUSH2 0x4B6 JUMPI JUMP JUMPDEST PUSH1 0x40 MLOAD PUSH3 0x461BCD PUSH1 0xE5 SHL DUP2 MSTORE PUSH1 0x20 PUSH1 0x4 DUP3 ADD MSTORE PUSH1 0x19 PUSH1 0x24 DUP3 ADD MSTORE PUSH25 0x14D95B1958DD1A5BDB881BDD5D18DBDB59481B9BDD081CD95D PUSH1 0x3A SHL PUSH1 0x44 DUP3 ADD MSTORE DUP1 PUSH1 0x64 DUP2 ADD JUMPDEST SUB SWAP1 REVERT JUMPDEST PUSH4 0x4E487B71 PUSH1 0xE0 SHL PUSH1 0x0 MSTORE PUSH1 0x0 PUSH1 0x4 MSTORE PUSH1 0x24 PUSH1 0x0 REVERT JUMPDEST SWAP1 PUSH1 0x0 SUB PUSH2 0x520 JUMPI PUSH1 0x0 SWAP1 SSTORE JUMP JUMPDEST PUSH2 0x4FC JUMP JUMPDEST PUSH1 0x0 PUSH2 0x566 PUSH2 0xC8 SWAP3 PUSH2 0x55F PUSH2 0x546 DUP5 PUSH2 0x540 DUP5 PUSH1 0x4 PUSH2 0x11F JUMP JUMPDEST ADD PUSH2 0x142 JUMP JUMPDEST PUSH2 0x559 PUSH2 0x552 DUP7 PUSH2 0x4A2 JUMP JUMPDEST SWAP2 PUSH1 0xFF AND SWAP1 JUMP JUMPDEST GT PUSH2 0x4AF JUMP JUMPDEST PUSH1 0x4 PUSH2 0x11F JUMP JUMPDEST PUSH2 0x512 JUMP JUMPDEST PUSH2 0xC8 SWAP1 PUSH2 0x491 JUMP JUMPDEST SWAP1 PUSH2 0xC8 SWAP3 SWAP2 PUSH2 0x582 PUSH2 0x10AD JUMP JUMPDEST PUSH2 0x689 JUMP JUMPDEST PUSH4 0x4E487B71 PUSH1 0xE0 SHL PUSH1 0x0 MSTORE PUSH1 0x41 PUSH1 0x4 MSTORE PUSH1 0x24 PUSH1 0x0 REVERT JUMPDEST SWAP1 PUSH1 0x1F ADD PUSH1 0x1F NOT AND DUP2 ADD SWAP1 DUP2 LT PUSH1 0x1 PUSH1 0x1 PUSH1 0x40 SHL SUB DUP3 GT OR PUSH2 0x5BE JUMPI PUSH1 0x40 MSTORE JUMP JUMPDEST PUSH2 0x587 JUMP JUMPDEST SWAP1 PUSH2 0xC8 PUSH2 0x5D0 PUSH1 0x40 MLOAD SWAP1 JUMP JUMPDEST SWAP3 DUP4 PUSH2 0x59D JUMP JUMPDEST PUSH2 0xDE PUSH1 0x40 PUSH2 0x5C3 JUMP JUMPDEST SWAP1 PUSH1 0xFF SWAP1 JUMPDEST SWAP2 DUP2 NOT AND SWAP2 AND OR SWAP1 JUMP JUMPDEST PUSH2 0x13C PUSH2 0xDE PUSH2 0xDE SWAP3 PUSH1 0xFF AND SWAP1 JUMP JUMPDEST SWAP1 PUSH2 0x610 PUSH2 0xDE PUSH2 0x617 SWAP3 PUSH2 0x5F0 JUMP JUMPDEST DUP3 SLOAD PUSH2 0x5E1 JUMP JUMPDEST SWAP1 SSTORE JUMP JUMPDEST SWAP1 PUSH3 0xFFFF00 SWAP1 PUSH1 0x8 SHL PUSH2 0x5E6 JUMP JUMPDEST PUSH2 0x154 PUSH2 0xDE PUSH2 0xDE SWAP3 PUSH2 0xFFFF AND SWAP1 JUMP JUMPDEST SWAP1 PUSH2 0x64A PUSH2 0xDE PUSH2 0x617 SWAP3 PUSH2 0x629 JUMP JUMPDEST DUP3 SLOAD PUSH2 0x61B JUMP JUMPDEST PUSH2 0xC8 SWAP2 PUSH2 0x679 SWAP1 PUSH1 0x20 SWAP1 PUSH2 0x670 PUSH2 0x66A DUP3 MLOAD PUSH1 0xFF AND SWAP1 JUMP JUMPDEST DUP6 PUSH2 0x600 JUMP JUMPDEST ADD MLOAD PUSH2 0xFFFF AND SWAP1 JUMP JUMPDEST SWAP1 PUSH2 0x63A JUMP JUMPDEST SWAP1 PUSH2 0xC8 SWAP2 PUSH2 0x651 JUMP JUMPDEST SWAP2 PUSH2 0x6E0 PUSH32 0xE9B29D792A9405688BAF68C8FBD5D83724C808B47931B1B304D21D4815C2D9C1 SWAP3 SWAP4 PUSH2 0x6DB PUSH2 0x6BB PUSH2 0x5D7 JUMP JUMPDEST PUSH1 0xFF DUP8 AND DUP2 MSTORE PUSH2 0xFFFF DUP6 AND PUSH1 0x20 DUP3 ADD MSTORE PUSH2 0x6D6 DUP4 PUSH1 0x4 PUSH2 0x11F JUMP JUMPDEST PUSH2 0x67F JUMP JUMPDEST PUSH2 0x103 JUMP JUMPDEST SWAP3 PUSH2 0x6ED PUSH2 0x1AF PUSH1 0x40 MLOAD SWAP1 JUMP JUMPDEST SUB SWAP1 LOG2 JUMP JUMPDEST SWAP1 PUSH2 0xC8 SWAP3 SWAP2 PUSH2 0x574 JUMP JUMPDEST PUSH2 0x705 PUSH2 0x10AD JUMP JUMPDEST PUSH2 0xC8 PUSH2 0x723 JUMP JUMPDEST PUSH2 0x2E3 PUSH2 0xDE PUSH2 0xDE SWAP3 SWAP1 JUMP JUMPDEST PUSH2 0xDE SWAP1 PUSH2 0x70D JUMP JUMPDEST PUSH2 0xC8 PUSH2 0x730 PUSH1 0x0 PUSH2 0x71A JUMP JUMPDEST PUSH2 0x110F JUMP JUMPDEST PUSH2 0xC8 PUSH2 0x6FD JUMP JUMPDEST SWAP1 PUSH2 0x74F SWAP2 PUSH2 0x74A PUSH2 0x116B JUMP JUMPDEST PUSH2 0x992 JUMP JUMPDEST SWAP1 PUSH2 0xC8 PUSH2 0x11B5 JUMP JUMPDEST SWAP1 PUSH2 0x186 SWAP1 PUSH2 0x32C JUMP JUMPDEST PUSH2 0xDE PUSH1 0x80 PUSH2 0x5C3 JUMP JUMPDEST SWAP1 PUSH2 0xC8 PUSH2 0x7C8 PUSH1 0x1 PUSH2 0x77D PUSH2 0x762 JUMP JUMPDEST SWAP5 PUSH2 0x78E PUSH2 0x78A DUP3 PUSH2 0x298 JUMP JUMPDEST DUP8 MSTORE JUMP JUMPDEST PUSH2 0x7A7 PUSH2 0x79C DUP4 DUP4 ADD PUSH2 0x2AB JUMP JUMPDEST PUSH2 0xFFFF AND PUSH1 0x20 DUP9 ADD MSTORE JUMP JUMPDEST PUSH2 0x7C2 PUSH2 0x7B5 DUP4 DUP4 ADD PUSH2 0x2C1 JUMP JUMPDEST PUSH4 0xFFFFFFFF AND PUSH1 0x40 DUP9 ADD MSTORE JUMP JUMPDEST ADD PUSH2 0x2E8 JUMP JUMPDEST PUSH1 0x60 DUP5 ADD PUSH2 0x758 JUMP JUMPDEST PUSH2 0xDE SWAP1 PUSH2 0x76C JUMP JUMPDEST PUSH2 0xDE SWAP1 MLOAD PUSH2 0x32C JUMP JUMPDEST ISZERO PUSH2 0x7EB JUMPI JUMP JUMPDEST PUSH1 0x40 MLOAD PUSH3 0x461BCD PUSH1 0xE5 SHL DUP2 MSTORE PUSH1 0x20 PUSH1 0x4 DUP3 ADD MSTORE PUSH1 0x17 PUSH1 0x24 DUP3 ADD MSTORE PUSH23 0x151A1A5CC818995D08191BD95CC81B9BDD08195E1A5CDD PUSH1 0x4A SHL PUSH1 0x44 DUP3 ADD MSTORE PUSH1 0x64 SWAP1 REVERT JUMPDEST ISZERO PUSH2 0x831 JUMPI JUMP JUMPDEST PUSH1 0x40 MLOAD PUSH3 0x461BCD PUSH1 0xE5 SHL DUP2 MSTORE PUSH1 0x20 PUSH1 0x4 DUP3 ADD MSTORE PUSH1 0x2D PUSH1 0x24 DUP3 ADD MSTORE PUSH32 0x556E617574686F72697A65643A206F6E6C79206F776E6572206F722062657474 PUSH1 0x44 DUP3 ADD MSTORE PUSH13 0x6F722063616E20736574746C65 PUSH1 0x98 SHL PUSH1 0x64 DUP3 ADD MSTORE PUSH1 0x84 SWAP1 REVERT JUMPDEST ISZERO PUSH2 0x893 JUMPI JUMP JUMPDEST PUSH1 0x40 MLOAD PUSH3 0x461BCD PUSH1 0xE5 SHL DUP2 MSTORE PUSH1 0x20 PUSH1 0x4 DUP3 ADD MSTORE PUSH1 0x22 PUSH1 0x24 DUP3 ADD MSTORE PUSH32 0x4F7574636F6D65206E6F742073657420666F7220746869732073656C65637469 PUSH1 0x44 DUP3 ADD MSTORE PUSH2 0x37B7 PUSH1 0xF1 SHL PUSH1 0x64 DUP3 ADD MSTORE PUSH1 0x84 SWAP1 REVERT JUMPDEST SWAP2 PUSH1 0x0 NOT PUSH1 0x8 SWAP3 SWAP1 SWAP3 MUL SWAP2 DUP3 SHL SWAP2 SHL PUSH2 0x5E6 JUMP JUMPDEST PUSH2 0xDE PUSH2 0xDE PUSH2 0xDE SWAP3 SWAP1 JUMP JUMPDEST SWAP2 SWAP1 PUSH2 0x915 PUSH2 0xDE PUSH2 0x617 SWAP4 PUSH2 0x8F7 JUMP JUMPDEST SWAP1 DUP4 SLOAD PUSH2 0x8E3 JUMP JUMPDEST PUSH2 0xC8 SWAP2 PUSH1 0x0 SWAP2 PUSH2 0x904 JUMP JUMPDEST PUSH1 0x0 SWAP1 PUSH1 0x1 SWAP1 PUSH2 0x939 DUP4 DUP3 PUSH2 0x91D JUMP JUMPDEST ADD SSTORE JUMP JUMPDEST SWAP1 PUSH1 0x0 SUB PUSH2 0x520 JUMPI PUSH2 0xC8 SWAP1 PUSH2 0x929 JUMP JUMPDEST PUSH2 0x2E3 PUSH2 0xDE PUSH2 0xDE SWAP3 PUSH2 0x2CB JUMP JUMPDEST PUSH2 0xDE SWAP1 PUSH2 0x94E JUMP JUMPDEST PUSH2 0xDE SWAP1 PUSH2 0x95D JUMP JUMPDEST PUSH2 0x154 PUSH2 0xDE PUSH2 0xDE SWAP3 SWAP1 JUMP JUMPDEST PUSH2 0xDE SWAP1 PUSH1 0x8 SHR PUSH2 0x2CB JUMP JUMPDEST PUSH2 0xDE SWAP1 SLOAD PUSH2 0x97C JUMP JUMPDEST POP PUSH1 0x3 PUSH2 0x9A7 PUSH2 0x9A2 DUP4 DUP4 PUSH2 0x11F JUMP JUMPDEST PUSH2 0x7D1 JUMP JUMPDEST SWAP1 PUSH1 0x60 DUP3 ADD SWAP2 DUP4 PUSH2 0x9B7 DUP5 PUSH2 0x7DA JUMP JUMPDEST SWAP3 PUSH2 0x9DF PUSH1 0x0 SWAP5 PUSH2 0x9D8 PUSH2 0x9D2 PUSH2 0x9CD DUP9 PUSH2 0x71A JUMP JUMPDEST PUSH2 0x32C JUMP JUMPDEST SWAP2 PUSH2 0x32C JUMP JUMPDEST EQ ISZERO PUSH2 0x7E4 JUMP JUMPDEST PUSH2 0x9EA PUSH2 0x9CD PUSH2 0xCB7 JUMP JUMPDEST PUSH2 0x9F3 CALLER PUSH2 0x32C JUMP JUMPDEST EQ DUP1 ISZERO PUSH2 0xC81 JUMPI JUMPDEST PUSH2 0xA04 SWAP1 PUSH2 0x82A JUMP JUMPDEST PUSH1 0x40 DUP4 ADD PUSH1 0x4 PUSH2 0xA3B PUSH2 0xA28 DUP8 PUSH2 0x540 PUSH2 0xA22 DUP7 MLOAD PUSH4 0xFFFFFFFF AND SWAP1 JUMP JUMPDEST DUP6 PUSH2 0x11F JUMP JUMPDEST PUSH2 0xA34 PUSH2 0x552 DUP10 PUSH2 0x4A2 JUMP JUMPDEST EQ ISZERO PUSH2 0x88C JUMP JUMPDEST PUSH2 0xA56 DUP7 PUSH2 0x540 PUSH2 0xA50 DUP6 MLOAD PUSH4 0xFFFFFFFF AND SWAP1 JUMP JUMPDEST DUP5 PUSH2 0x11F JUMP JUMPDEST PUSH2 0xA60 PUSH1 0x32 PUSH2 0x4A2 JUMP JUMPDEST PUSH1 0xFF DUP3 AND GT ISZERO PUSH2 0xB19 JUMPI POP POP POP DUP4 PUSH2 0xAB7 SWAP4 PUSH2 0xA8F PUSH2 0xABD SWAP7 PUSH2 0xA8A PUSH2 0xAC3 SWAP10 SWAP7 PUSH2 0xAB2 SWAP7 PUSH2 0x11F JUMP JUMPDEST PUSH2 0x93D JUMP JUMPDEST PUSH2 0xAAC PUSH2 0xA9C PUSH1 0x2 PUSH2 0x988 JUMP JUMPDEST SWAP3 PUSH2 0xAA6 DUP7 PUSH2 0x7DA JUMP JUMPDEST SWAP3 ADD MLOAD SWAP1 JUMP JUMPDEST SWAP2 PUSH2 0x125B JUMP JUMPDEST PUSH2 0x7DA JUMP JUMPDEST SWAP3 PUSH2 0x103 JUMP JUMPDEST SWAP2 PUSH2 0x966 JUMP JUMPDEST SWAP1 PUSH1 0x0 DUP1 MLOAD PUSH1 0x20 PUSH2 0x154D DUP4 CODECOPY DUP2 MLOAD SWAP2 MSTORE PUSH2 0xADC PUSH1 0x40 MLOAD SWAP1 JUMP JUMPDEST PUSH1 0x20 DUP1 DUP3 MSTORE PUSH1 0x1B SWAP1 DUP3 ADD MSTORE PUSH27 0x2132BA103B37B4B232B2161039BA30B5B2903932BA3AB93732B217 PUSH1 0x29 SHL PUSH1 0x40 DUP3 ADD MSTORE DUP1 PUSH1 0x60 DUP2 ADD JUMPDEST SUB SWAP1 LOG3 PUSH1 0x1 SWAP1 JUMP JUMPDEST PUSH2 0xB2E PUSH2 0x552 PUSH1 0x1 SWAP9 SWAP7 SWAP5 SWAP8 SWAP9 SWAP6 SWAP4 SWAP6 PUSH2 0x4A2 JUMP JUMPDEST SUB PUSH2 0xC24 JUMPI SWAP5 PUSH2 0xAB7 SWAP5 DUP5 PUSH2 0xAB2 SWAP5 PUSH2 0xB55 PUSH2 0xBA3 SWAP11 SWAP8 PUSH2 0xA8A PUSH2 0xB8A SWAP8 PUSH2 0xABD SWAP13 PUSH2 0x11F JUMP JUMPDEST PUSH1 0x20 DUP5 ADD MLOAD PUSH2 0xFFFF AND SWAP3 DUP4 PUSH2 0xB74 PUSH2 0xB6C DUP6 PUSH2 0x96F JUMP JUMPDEST SWAP2 PUSH2 0xFFFF AND SWAP1 JUMP JUMPDEST EQ PUSH2 0xBF6 JUMPI JUMPDEST POP POP SWAP1 SWAP2 ADD MLOAD PUSH2 0x11F2 JUMP JUMPDEST PUSH2 0x11F2 JUMP JUMPDEST PUSH2 0xB94 PUSH1 0x2 PUSH2 0x988 JUMP JUMPDEST PUSH2 0xB9D DUP5 PUSH2 0x7DA JUMP JUMPDEST SWAP1 PUSH2 0x125B JUMP JUMPDEST SWAP1 PUSH1 0x0 DUP1 MLOAD PUSH1 0x20 PUSH2 0x154D DUP4 CODECOPY DUP2 MLOAD SWAP2 MSTORE PUSH2 0xBBC PUSH1 0x40 MLOAD SWAP1 JUMP JUMPDEST PUSH1 0x20 DUP1 DUP3 MSTORE PUSH1 0x1C SWAP1 DUP3 ADD MSTORE PUSH28 0x42657420776F6E202D207061796F7574207375636365737366756C21 PUSH1 0x20 SHL PUSH1 0x40 DUP3 ADD MSTORE DUP1 PUSH1 0x60 DUP2 ADD PUSH2 0xB11 JUMP JUMPDEST PUSH2 0xB85 SWAP4 POP PUSH2 0xC17 PUSH2 0xC1D SWAP3 PUSH2 0xC11 DUP6 SWAP4 MLOAD PUSH4 0xFFFFFFFF AND SWAP1 JUMP JUMPDEST SWAP1 PUSH2 0x11F JUMP JUMPDEST ADD PUSH2 0x15B JUMP JUMPDEST SWAP2 CODESIZE PUSH2 0xB7A JUMP JUMPDEST PUSH2 0xABD SWAP6 POP PUSH2 0xAB7 SWAP5 POP PUSH2 0xAB2 SWAP3 POP PUSH2 0xC42 SWAP7 SWAP4 SWAP2 PUSH2 0xA8A SWAP2 PUSH2 0x11F JUMP JUMPDEST SWAP1 PUSH1 0x0 DUP1 MLOAD PUSH1 0x20 PUSH2 0x154D DUP4 CODECOPY DUP2 MLOAD SWAP2 MSTORE PUSH2 0xC5B PUSH1 0x40 MLOAD SWAP1 JUMP JUMPDEST PUSH1 0x20 DUP1 DUP3 MSTORE PUSH1 0x8 SWAP1 DUP3 ADD MSTORE PUSH8 0x10995D081B1BDCDD PUSH1 0xC2 SHL PUSH1 0x40 DUP3 ADD MSTORE DUP1 PUSH1 0x60 DUP2 ADD PUSH2 0xB11 JUMP JUMPDEST POP PUSH2 0xA04 PUSH2 0xC91 PUSH2 0x9CD DUP8 PUSH2 0x7DA JUMP JUMPDEST PUSH2 0xC9A CALLER PUSH2 0x32C JUMP JUMPDEST EQ SWAP1 POP PUSH2 0x9FB JUMP JUMPDEST PUSH2 0xDE SWAP1 PUSH1 0x0 PUSH2 0x73D JUMP JUMPDEST PUSH2 0xDE SWAP1 SLOAD PUSH2 0x32C JUMP JUMPDEST PUSH2 0xDE PUSH1 0x0 PUSH2 0xCAD JUMP JUMPDEST SWAP1 PUSH2 0xCD5 SWAP4 SWAP3 SWAP2 PUSH2 0xCD0 PUSH2 0x116B JUMP JUMPDEST PUSH2 0xEE1 JUMP JUMPDEST PUSH2 0xC8 PUSH2 0x11B5 JUMP JUMPDEST ISZERO PUSH2 0xCE4 JUMPI JUMP JUMPDEST PUSH1 0x40 MLOAD PUSH3 0x461BCD PUSH1 0xE5 SHL DUP2 MSTORE PUSH1 0x20 PUSH1 0x4 DUP3 ADD MSTORE PUSH1 0x21 PUSH1 0x24 DUP3 ADD MSTORE PUSH32 0x54686973206265742068617320616C7265616479206265656E20706C61636564 PUSH1 0x44 DUP3 ADD MSTORE PUSH1 0x21 PUSH1 0xF8 SHL PUSH1 0x64 DUP3 ADD MSTORE PUSH1 0x84 SWAP1 REVERT JUMPDEST ISZERO PUSH2 0xD3A JUMPI JUMP JUMPDEST PUSH1 0x40 MLOAD PUSH3 0x461BCD PUSH1 0xE5 SHL DUP2 MSTORE PUSH1 0x20 PUSH1 0x4 DUP3 ADD MSTORE PUSH1 0x15 PUSH1 0x24 DUP3 ADD MSTORE PUSH21 0x5374616B652063616E6E6F74206265207A65726F21 PUSH1 0x58 SHL PUSH1 0x44 DUP3 ADD MSTORE PUSH1 0x64 SWAP1 REVERT JUMPDEST ISZERO PUSH2 0xD7E JUMPI JUMP JUMPDEST PUSH1 0x40 MLOAD PUSH3 0x461BCD PUSH1 0xE5 SHL DUP2 MSTORE PUSH1 0x20 PUSH1 0x4 DUP3 ADD MSTORE PUSH1 0x35 PUSH1 0x24 DUP3 ADD MSTORE PUSH32 0x4F646473206D75737420626520696D706C6965642074797065204F5220666978 PUSH1 0x44 DUP3 ADD MSTORE PUSH21 0x656420747970652028312E30302D3530302E303029 PUSH1 0x58 SHL PUSH1 0x64 DUP3 ADD MSTORE PUSH1 0x84 SWAP1 REVERT JUMPDEST SWAP1 PUSH1 0x0 NOT SWAP1 PUSH2 0x5E6 JUMP JUMPDEST SWAP1 PUSH2 0xDFB PUSH2 0xDE PUSH2 0x617 SWAP3 PUSH2 0x8F7 JUMP JUMPDEST DUP3 SLOAD PUSH2 0xDE1 JUMP JUMPDEST SWAP1 PUSH2 0xFFFF SWAP1 PUSH2 0x5E6 JUMP JUMPDEST SWAP1 PUSH2 0xE1C PUSH2 0xDE PUSH2 0x617 SWAP3 PUSH2 0x629 JUMP JUMPDEST DUP3 SLOAD PUSH2 0xE02 JUMP JUMPDEST SWAP1 PUSH6 0xFFFFFFFF0000 SWAP1 PUSH1 0x10 SHL PUSH2 0x5E6 JUMP JUMPDEST SWAP1 PUSH2 0xE44 PUSH2 0xDE PUSH2 0x617 SWAP3 PUSH2 0x103 JUMP JUMPDEST DUP3 SLOAD PUSH2 0xE23 JUMP JUMPDEST SWAP1 PUSH1 0x1 PUSH1 0x30 SHL PUSH1 0x1 PUSH1 0xD0 SHL SUB SWAP1 PUSH1 0x30 SHL PUSH2 0x5E6 JUMP JUMPDEST SWAP1 PUSH2 0xE70 PUSH2 0xDE PUSH2 0x617 SWAP3 PUSH2 0x966 JUMP JUMPDEST DUP3 SLOAD PUSH2 0xE4B JUMP JUMPDEST SWAP1 PUSH2 0xED1 PUSH1 0x60 PUSH1 0x1 PUSH2 0xC8 SWAP5 PUSH2 0xE97 PUSH2 0xE91 PUSH1 0x0 DUP8 ADD MLOAD SWAP1 JUMP JUMPDEST DUP3 PUSH2 0xDEB JUMP JUMPDEST ADD SWAP3 PUSH2 0xEB1 PUSH2 0xEAB PUSH1 0x20 DUP4 ADD MLOAD PUSH2 0xFFFF AND SWAP1 JUMP JUMPDEST DUP6 PUSH2 0xE0C JUMP JUMPDEST PUSH2 0xECB PUSH2 0xEC5 PUSH1 0x40 DUP4 ADD MLOAD PUSH4 0xFFFFFFFF AND SWAP1 JUMP JUMPDEST DUP6 PUSH2 0xE34 JUMP JUMPDEST ADD PUSH2 0x7DA JUMP JUMPDEST SWAP1 PUSH2 0xE60 JUMP JUMPDEST SWAP1 PUSH2 0xC8 SWAP2 PUSH2 0xE77 JUMP JUMPDEST SWAP2 PUSH32 0x956756997B62611747930036F89443FBD4F9B9CA9C5F5D9E30D82FD14203C882 SWAP2 PUSH2 0xFA9 PUSH2 0xF17 PUSH1 0x1 PUSH2 0x7C2 DUP8 PUSH1 0x3 PUSH2 0x11F JUMP JUMPDEST PUSH2 0xF32 PUSH1 0x0 SWAP2 PUSH2 0xF2C PUSH2 0x9D2 PUSH2 0x9CD DUP6 PUSH2 0x71A JUMP JUMPDEST EQ PUSH2 0xCDD JUMP JUMPDEST PUSH2 0xF45 PUSH2 0xF3E DUP3 PUSH2 0x8F7 JUMP JUMPDEST DUP5 GT PUSH2 0xD33 JUMP JUMPDEST PUSH2 0xF4E DUP2 PUSH2 0x96F JUMP JUMPDEST PUSH2 0xFFFF DUP6 AND EQ DUP1 ISZERO PUSH2 0x1012 JUMPI JUMPDEST PUSH2 0xF64 SWAP1 PUSH2 0xD77 JUMP JUMPDEST PUSH2 0xF76 DUP4 PUSH2 0xF70 PUSH2 0x762 JUMP JUMPDEST SWAP3 DUP4 ADD MSTORE JUMP JUMPDEST PUSH2 0xFFFF DUP5 AND PUSH1 0x20 DUP3 ADD MSTORE PUSH4 0xFFFFFFFF DUP8 AND PUSH1 0x40 DUP3 ADD MSTORE PUSH2 0xF99 CALLER PUSH1 0x60 DUP4 ADD PUSH2 0x758 JUMP JUMPDEST PUSH2 0xFA4 DUP7 PUSH1 0x3 PUSH2 0x11F JUMP JUMPDEST PUSH2 0xED7 JUMP JUMPDEST PUSH2 0xFC8 DUP2 PUSH2 0xFB7 PUSH1 0x2 PUSH2 0x988 JUMP JUMPDEST PUSH2 0xFC0 ADDRESS PUSH2 0x966 JUMP JUMPDEST SWAP1 CALLER SWAP1 PUSH2 0x12CD JUMP JUMPDEST PUSH2 0x100D PUSH2 0xFDD PUSH2 0xFD7 CALLER PUSH2 0x966 JUMP JUMPDEST SWAP6 PUSH2 0x103 JUMP JUMPDEST SWAP6 PUSH2 0xFE7 PUSH1 0x40 MLOAD SWAP1 JUMP JUMPDEST SWAP4 DUP5 SWAP4 DUP5 SWAP1 DUP2 MSTORE PUSH2 0xFFFF SWAP2 SWAP1 SWAP2 AND PUSH1 0x20 DUP3 ADD MSTORE PUSH4 0xFFFFFFFF SWAP1 SWAP2 AND PUSH1 0x40 DUP3 ADD MSTORE PUSH1 0x60 ADD SWAP1 JUMP JUMPDEST SUB SWAP1 LOG3 JUMP JUMPDEST POP PUSH2 0x101D PUSH1 0x64 PUSH2 0x96F JUMP JUMPDEST PUSH2 0xFFFF DUP6 AND GT DUP1 ISZERO PUSH2 0xF5B JUMPI POP PUSH2 0xF64 PUSH2 0x1038 PUSH2 0xC350 PUSH2 0x96F JUMP JUMPDEST PUSH2 0xFFFF DUP7 AND GT ISZERO SWAP1 POP PUSH2 0xF5B JUMP JUMPDEST SWAP1 PUSH2 0xC8 SWAP4 SWAP3 SWAP2 PUSH2 0xCC1 JUMP JUMPDEST PUSH2 0xC8 SWAP1 PUSH2 0x105E PUSH2 0x10AD JUMP JUMPDEST PUSH1 0x0 PUSH2 0x1069 DUP2 PUSH2 0x71A JUMP JUMPDEST PUSH2 0x1072 DUP2 PUSH2 0x32C JUMP JUMPDEST PUSH2 0x107B DUP5 PUSH2 0x32C JUMP JUMPDEST EQ PUSH2 0x108B JUMPI POP POP PUSH2 0xC8 SWAP1 PUSH2 0x110F JUMP JUMPDEST PUSH4 0x1E4FBDF7 PUSH1 0xE0 SHL DUP3 MSTORE DUP2 SWAP1 PUSH2 0x4F8 SWAP1 PUSH1 0x4 DUP4 ADD PUSH2 0x3AD JUMP JUMPDEST PUSH2 0xC8 SWAP1 PUSH2 0x1052 JUMP JUMPDEST PUSH2 0x10B5 PUSH2 0xCB7 JUMP JUMPDEST CALLER SWAP1 PUSH2 0x10C3 PUSH2 0x9D2 DUP4 PUSH2 0x32C JUMP JUMPDEST SUB PUSH2 0x10CB JUMPI POP JUMP JUMPDEST PUSH4 0x118CDAA7 PUSH1 0xE0 SHL PUSH1 0x0 SWAP1 DUP2 MSTORE SWAP1 PUSH2 0x10E4 SWAP1 PUSH1 0x4 PUSH2 0x3AD JUMP JUMPDEST SUB PUSH1 0x0 REVERT JUMPDEST SWAP1 PUSH1 0x1 PUSH1 0x1 PUSH1 0xA0 SHL SUB SWAP1 PUSH2 0x5E6 JUMP JUMPDEST SWAP1 PUSH2 0x1108 PUSH2 0xDE PUSH2 0x617 SWAP3 PUSH2 0x966 JUMP JUMPDEST DUP3 SLOAD PUSH2 0x10E9 JUMP JUMPDEST PUSH2 0x112F PUSH2 0xABD PUSH2 0x111F PUSH1 0x0 PUSH2 0xCAD JUMP JUMPDEST PUSH2 0x112A DUP5 PUSH1 0x0 PUSH2 0x10F8 JUMP JUMPDEST PUSH2 0x966 JUMP JUMPDEST SWAP1 PUSH32 0x8BE0079C531659141344CD1FD0A4F28419497F9722A3DAAFE3B4186F6B6457E0 PUSH2 0x115A PUSH1 0x40 MLOAD SWAP1 JUMP JUMPDEST DUP1 DUP1 PUSH2 0x100D JUMP JUMPDEST PUSH2 0xDE PUSH1 0x2 PUSH2 0x8F7 JUMP JUMPDEST PUSH2 0x1175 PUSH1 0x1 PUSH2 0x298 JUMP JUMPDEST PUSH2 0x117D PUSH2 0x1161 JUMP JUMPDEST SWAP1 DUP2 SWAP1 PUSH2 0x1189 JUMP JUMPDEST SWAP2 SWAP1 JUMP JUMPDEST EQ PUSH2 0x1199 JUMPI PUSH2 0xC8 SWAP1 PUSH1 0x1 PUSH2 0xDEB JUMP JUMPDEST PUSH4 0x3EE5AEB5 PUSH1 0xE0 SHL PUSH1 0x0 SWAP1 DUP2 MSTORE PUSH1 0x4 SWAP1 REVERT JUMPDEST PUSH2 0xDE PUSH1 0x1 PUSH2 0x8F7 JUMP JUMPDEST PUSH2 0xC8 PUSH2 0x11C0 PUSH2 0x11AB JUMP JUMPDEST PUSH1 0x1 PUSH2 0xDEB JUMP JUMPDEST PUSH2 0xDE PUSH1 0x64 PUSH2 0x4A2 JUMP JUMPDEST PUSH2 0xDE PUSH2 0xDE PUSH2 0xDE SWAP3 PUSH2 0xFFFF AND SWAP1 JUMP JUMPDEST PUSH2 0xDE PUSH2 0xDE PUSH2 0xDE SWAP3 PUSH1 0xFF AND SWAP1 JUMP JUMPDEST PUSH2 0xDE SWAP2 PUSH2 0x1210 PUSH2 0x120A PUSH2 0x1204 PUSH2 0x11C7 JUMP JUMPDEST SWAP3 PUSH2 0x11D1 JUMP JUMPDEST SWAP2 PUSH2 0x11E2 JUMP JUMPDEST SWAP2 PUSH2 0x133C JUMP JUMPDEST PUSH2 0x122F PUSH2 0x1229 PUSH2 0xDE SWAP3 PUSH4 0xFFFFFFFF AND SWAP1 JUMP JUMPDEST PUSH1 0xE0 SHL SWAP1 JUMP JUMPDEST PUSH1 0x1 PUSH1 0x1 PUSH1 0xE0 SHL SUB NOT AND SWAP1 JUMP JUMPDEST SWAP2 PUSH1 0x20 PUSH2 0xC8 SWAP3 SWAP5 SWAP4 PUSH2 0x1257 PUSH1 0x40 DUP3 ADD SWAP7 PUSH1 0x0 DUP4 ADD SWAP1 PUSH2 0x335 JUMP JUMPDEST ADD MSTORE JUMP JUMPDEST PUSH2 0x129E PUSH1 0x4 SWAP3 PUSH2 0x128F PUSH2 0xC8 SWAP6 PUSH2 0x1275 PUSH4 0xA9059CBB PUSH2 0x1216 JUMP JUMPDEST SWAP3 PUSH2 0x127F PUSH1 0x40 MLOAD SWAP1 JUMP JUMPDEST SWAP7 DUP8 SWAP5 PUSH1 0x20 DUP7 ADD SWAP1 DUP2 MSTORE ADD PUSH2 0x123C JUMP JUMPDEST PUSH1 0x20 DUP3 ADD DUP2 SUB DUP3 MSTORE SUB DUP4 PUSH2 0x59D JUMP JUMPDEST PUSH2 0x1474 JUMP JUMPDEST PUSH1 0x40 SWAP1 PUSH2 0x1257 PUSH2 0xC8 SWAP5 SWAP7 SWAP6 SWAP4 SWAP7 PUSH2 0x12C3 PUSH1 0x60 DUP5 ADD SWAP9 PUSH1 0x0 DUP6 ADD SWAP1 PUSH2 0x335 JUMP JUMPDEST PUSH1 0x20 DUP4 ADD SWAP1 PUSH2 0x335 JUMP JUMPDEST SWAP1 PUSH2 0x129E SWAP1 PUSH2 0x128F PUSH2 0xC8 SWAP6 PUSH1 0x4 SWAP6 PUSH2 0x12E9 PUSH4 0x23B872DD PUSH2 0x1216 JUMP JUMPDEST SWAP4 PUSH2 0x12F3 PUSH1 0x40 MLOAD SWAP1 JUMP JUMPDEST SWAP8 DUP9 SWAP6 PUSH1 0x20 DUP8 ADD SWAP1 DUP2 MSTORE ADD PUSH2 0x12A3 JUMP JUMPDEST PUSH4 0x4E487B71 PUSH1 0xE0 SHL PUSH1 0x0 MSTORE PUSH1 0x12 PUSH1 0x4 MSTORE PUSH1 0x24 PUSH1 0x0 REVERT JUMPDEST DUP2 ISZERO PUSH2 0x1323 JUMPI DIV SWAP1 JUMP JUMPDEST PUSH2 0x1303 JUMP JUMPDEST PUSH2 0xDE PUSH1 0x12 PUSH2 0x8F7 JUMP JUMPDEST PUSH2 0xDE PUSH1 0x11 PUSH2 0x8F7 JUMP JUMPDEST SWAP1 PUSH1 0x0 SWAP2 PUSH2 0x134A DUP3 DUP3 PUSH2 0x150B JUMP JUMPDEST SWAP3 SWAP1 SWAP2 PUSH1 0x0 SWAP5 PUSH2 0x1359 DUP7 PUSH2 0x8F7 JUMP JUMPDEST DUP5 EQ PUSH2 0x1465 JUMPI DUP4 DUP8 GT ISZERO PUSH2 0x1439 JUMPI DUP6 SWAP4 DUP8 PUSH2 0x13A9 SWAP5 PUSH2 0x13BC SWAP8 SWAP5 PUSH1 0x1 SWAP5 PUSH2 0xDE SWAP12 SWAP11 POP POP MULMOD SWAP1 DUP4 DUP3 GT SWAP1 SUB SWAP3 SUB SWAP6 PUSH2 0x1398 DUP2 PUSH2 0x1394 DUP8 PUSH2 0x8F7 JUMP JUMPDEST SUB SWAP1 JUMP JUMPDEST DUP2 AND DUP1 DUP1 DUP1 SWAP4 DIV SWAP9 DIV SWAP6 SUB DIV ADD MUL SWAP1 JUMP JUMPDEST OR SWAP2 PUSH2 0x13BC PUSH2 0x13C0 DUP3 PUSH2 0x13BC PUSH1 0x3 PUSH2 0x8F7 JUMP JUMPDEST MUL SWAP1 JUMP JUMPDEST PUSH2 0x1394 PUSH2 0x1433 PUSH2 0x142D PUSH2 0x141E PUSH2 0x140F PUSH2 0x1400 PUSH2 0x13F1 PUSH1 0x2 SWAP8 PUSH2 0x13E1 DUP10 PUSH2 0x8F7 JUMP JUMPDEST XOR PUSH2 0x13BC DUP12 DUP3 MUL PUSH2 0x1394 DUP12 PUSH2 0x8F7 JUMP JUMPDEST PUSH2 0x13BC DUP11 DUP3 MUL PUSH2 0x1394 DUP11 PUSH2 0x8F7 JUMP JUMPDEST PUSH2 0x13BC DUP10 DUP3 MUL PUSH2 0x1394 DUP10 PUSH2 0x8F7 JUMP JUMPDEST PUSH2 0x13BC DUP9 DUP3 MUL PUSH2 0x1394 DUP9 PUSH2 0x8F7 JUMP JUMPDEST PUSH2 0x13BC DUP8 DUP3 MUL PUSH2 0x1394 DUP8 PUSH2 0x8F7 JUMP JUMPDEST DUP1 SWAP6 MUL SWAP1 JUMP JUMPDEST SWAP2 PUSH2 0x8F7 JUMP JUMPDEST PUSH2 0x1460 DUP8 PUSH2 0x1449 PUSH2 0x1185 DUP10 PUSH2 0x8F7 JUMP JUMPDEST EQ PUSH2 0x1452 PUSH2 0x1328 JUMP JUMPDEST PUSH2 0x145A PUSH2 0x1332 JUMP JUMPDEST SWAP2 PUSH2 0x151F JUMP JUMPDEST PUSH2 0x153B JUMP JUMPDEST POP POP POP POP PUSH2 0xDE SWAP3 SWAP2 POP PUSH2 0x1319 JUMP JUMPDEST SWAP1 PUSH1 0x0 PUSH1 0x20 SWAP2 PUSH2 0x1482 PUSH1 0x0 SWAP1 JUMP JUMPDEST POP DUP3 DUP2 MLOAD SWAP2 ADD DUP3 DUP6 GAS CALL ISZERO PUSH2 0x14FF JUMPI RETURNDATASIZE SWAP1 PUSH1 0x0 MLOAD PUSH1 0x0 SWAP3 PUSH2 0x14A5 PUSH2 0x1185 DUP6 PUSH2 0x8F7 JUMP JUMPDEST SUB PUSH2 0x14EB JUMPI POP PUSH2 0x14B4 DUP2 PUSH2 0x966 JUMP JUMPDEST EXTCODESIZE PUSH2 0x14C1 PUSH2 0x1185 DUP5 PUSH2 0x8F7 JUMP JUMPDEST EQ JUMPDEST PUSH2 0x14CB JUMPI POP POP JUMP JUMPDEST PUSH2 0x4F8 PUSH2 0x14D8 DUP4 SWAP3 PUSH2 0x966 JUMP JUMPDEST PUSH4 0x5274AFE7 PUSH1 0xE0 SHL DUP4 MSTORE PUSH1 0x4 DUP4 ADD PUSH2 0x3AD JUMP JUMPDEST PUSH2 0x14F8 PUSH2 0x1185 PUSH1 0x1 PUSH2 0x8F7 JUMP JUMPDEST EQ ISZERO PUSH2 0x14C3 JUMP JUMPDEST PUSH1 0x40 MLOAD RETURNDATASIZE PUSH1 0x0 DUP3 RETURNDATACOPY RETURNDATASIZE SWAP1 REVERT JUMPDEST SWAP1 PUSH1 0x0 NOT DUP2 DUP4 MULMOD SWAP2 MUL SWAP1 DUP2 DUP1 DUP3 LT SWAP2 SUB SUB SWAP2 JUMP JUMPDEST PUSH2 0x13BC DUP4 PUSH2 0x1537 SWAP4 PUSH2 0x152F PUSH1 0x0 SWAP1 JUMP JUMPDEST POP XOR SWAP2 ISZERO ISZERO SWAP1 JUMP JUMPDEST XOR SWAP1 JUMP JUMPDEST PUSH4 0x4E487B71 PUSH1 0x0 MSTORE PUSH1 0x20 MSTORE PUSH1 0x24 PUSH1 0x1C REVERT INVALID DUP16 0xE4 0x23 ADDMOD 0xC6 0xF8 0x2F PUSH27 0xB2F5E6928B910A862B18C150E427C3AC0E749E2F7C51867FA26469 PUSH17 0x6673582212208DECC9338BEBA0B7BE1AB2 0xD8 0xD4 0xA9 0x2F 0xD7 0xD3 ADDMOD 0xD1 0xEC PUSH14 0x139B6CDCB7B549DA9A5A6864736F PUSH13 0x634300081C0033000000000000 "
        },
        "methodIdentifiers": {
          "bets(uint32)": "7b2542b9",
          "clearSelectionOutcome(uint32)": "034d4960",
          "owner()": "8da5cb5b",
          "placeBet(uint32,uint256,uint16,uint32)": "ea335ea8",
          "renounceOwnership()": "715018a6",
          "selectionOutcomes(uint32)": "03f22614",
          "setSelectionOutcome(uint32,uint8,uint16)": "672d3a74",
          "settleBet(uint32)": "77619986",
          "transferOwnership(address)": "f2fde38b"
        }
      },
      "storageLayout": {
        "storage": [
          {
            "astId": 8,
            "contract": "contracts/RaceChainBetting.sol:RaceChainBetting",
            "label": "_owner",
            "offset": 0,
            "slot": "0",
            "type": "t_address"
          },
          {
            "astId": 872,
            "contract": "contracts/RaceChainBetting.sol:RaceChainBetting",
            "label": "_status",
            "offset": 0,
            "slot": "1",
            "type": "t_uint256"
          },
          {
            "astId": 4351,
            "contract": "contracts/RaceChainBetting.sol:RaceChainBetting",
            "label": "_tokenDecimals",
            "offset": 0,
            "slot": "2",
            "type": "t_uint8"
          },
          {
            "astId": 4354,
            "contract": "contracts/RaceChainBetting.sol:RaceChainBetting",
            "label": "_token",
            "offset": 1,
            "slot": "2",
            "type": "t_contract(IERC20)315"
          },
          {
            "astId": 4380,
            "contract": "contracts/RaceChainBetting.sol:RaceChainBetting",
            "label": "bets",
            "offset": 0,
            "slot": "3",
            "type": "t_mapping(t_uint32,t_struct(Bet)4368_storage)"
          },
          {
            "astId": 4386,
            "contract": "contracts/RaceChainBetting.sol:RaceChainBetting",
            "label": "selectionOutcomes",
            "offset": 0,
            "slot": "4",
            "type": "t_mapping(t_uint32,t_struct(SelectionOutcome)4374_storage)"
          }
        ],
        "types": {
          "t_address": {
            "encoding": "inplace",
            "label": "address",
            "numberOfBytes": "20"
          },
          "t_contract(IERC20)315": {
            "encoding": "inplace",
            "label": "contract IERC20",
            "numberOfBytes": "20"
          },
          "t_mapping(t_uint32,t_struct(Bet)4368_storage)": {
            "encoding": "mapping",
            "key": "t_uint32",
            "label": "mapping(uint32 => struct RaceChainBetting.Bet)",
            "numberOfBytes": "32",
            "value": "t_struct(Bet)4368_storage"
          },
          "t_mapping(t_uint32,t_struct(SelectionOutcome)4374_storage)": {
            "encoding": "mapping",
            "key": "t_uint32",
            "label": "mapping(uint32 => struct RaceChainBetting.SelectionOutcome)",
            "numberOfBytes": "32",
            "value": "t_struct(SelectionOutcome)4374_storage"
          },
          "t_struct(Bet)4368_storage": {
            "encoding": "inplace",
            "label": "struct RaceChainBetting.Bet",
            "members": [
              {
                "astId": 4361,
                "contract": "contracts/RaceChainBetting.sol:RaceChainBetting",
                "label": "stake",
                "offset": 0,
                "slot": "0",
                "type": "t_uint256"
              },
              {
                "astId": 4363,
                "contract": "contracts/RaceChainBetting.sol:RaceChainBetting",
                "label": "odds",
                "offset": 0,
                "slot": "1",
                "type": "t_uint16"
              },
              {
                "astId": 4365,
                "contract": "contracts/RaceChainBetting.sol:RaceChainBetting",
                "label": "selectionId",
                "offset": 2,
                "slot": "1",
                "type": "t_uint32"
              },
              {
                "astId": 4367,
                "contract": "contracts/RaceChainBetting.sol:RaceChainBetting",
                "label": "user",
                "offset": 6,
                "slot": "1",
                "type": "t_address"
              }
            ],
            "numberOfBytes": "64"
          },
          "t_struct(SelectionOutcome)4374_storage": {
            "encoding": "inplace",
            "label": "struct RaceChainBetting.SelectionOutcome",
            "members": [
              {
                "astId": 4371,
                "contract": "contracts/RaceChainBetting.sol:RaceChainBetting",
                "label": "position",
                "offset": 0,
                "slot": "0",
                "type": "t_uint8"
              },
              {
                "astId": 4373,
                "contract": "contracts/RaceChainBetting.sol:RaceChainBetting",
                "label": "impliedOdds",
                "offset": 1,
                "slot": "0",
                "type": "t_uint16"
              }
            ],
            "numberOfBytes": "32"
          },
          "t_uint16": {
            "encoding": "inplace",
            "label": "uint16",
            "numberOfBytes": "2"
          },
          "t_uint256": {
            "encoding": "inplace",
            "label": "uint256",
            "numberOfBytes": "32"
          },
          "t_uint32": {
            "encoding": "inplace",
            "label": "uint32",
            "numberOfBytes": "4"
          },
          "t_uint8": {
            "encoding": "inplace",
            "label": "uint8",
            "numberOfBytes": "1"
          }
        }
      }
    }
  }
}