{
  "_format": "hh-sol-artifact-1",
  "contractName": "RaceChainBetting",
  "sourceName": "contracts/RaceChainBetting.sol",
  "abi": [
    {
      "inputs": [
        {
          "internalType": "address",
          "name": "initialOwner",
          "type": "address"
        },
        {
          "internalType": "address",
          "name": "_tokenAddress",
          "type": "address"
        },
        {
          "internalType": "uint8",
          "name": "tokenDecimals",
          "type": "uint8"
        }
      ],
      "stateMutability": "nonpayable",
      "type": "constructor"
    },
    {
      "inputs": [
        {
          "internalType": "address",
          "name": "owner",
          "type": "address"
        }
      ],
      "name": "OwnableInvalidOwner",
      "type": "error"
    },
    {
      "inputs": [
        {
          "internalType": "address",
          "name": "account",
          "type": "address"
        }
      ],
      "name": "OwnableUnauthorizedAccount",
      "type": "error"
    },
    {
      "inputs": [],
      "name": "ReentrancyGuardReentrantCall",
      "type": "error"
    },
    {
      "inputs": [
        {
          "internalType": "address",
          "name": "token",
          "type": "address"
        }
      ],
      "name": "SafeERC20FailedOperation",
      "type": "error"
    },
    {
      "anonymous": false,
      "inputs": [
        {
          "indexed": true,
          "internalType": "address",
          "name": "user",
          "type": "address"
        },
        {
          "indexed": true,
          "internalType": "uint32",
          "name": "betId",
          "type": "uint32"
        },
        {
          "indexed": false,
          "internalType": "uint256",
          "name": "stake",
          "type": "uint256"
        },
        {
          "indexed": false,
          "internalType": "uint16",
          "name": "odds",
          "type": "uint16"
        },
        {
          "indexed": false,
          "internalType": "uint32",
          "name": "selectionId",
          "type": "uint32"
        }
      ],
      "name": "BetPlaced",
      "type": "event"
    },
    {
      "anonymous": false,
      "inputs": [
        {
          "indexed": true,
          "internalType": "uint32",
          "name": "betId",
          "type": "uint32"
        },
        {
          "indexed": true,
          "internalType": "address",
          "name": "user",
          "type": "address"
        },
        {
          "indexed": false,
          "internalType": "string",
          "name": "result",
          "type": "string"
        }
      ],
      "name": "BetSettled",
      "type": "event"
    },
    {
      "anonymous": false,
      "inputs": [
        {
          "indexed": true,
          "internalType": "address",
          "name": "previousOwner",
          "type": "address"
        },
        {
          "indexed": true,
          "internalType": "address",
          "name": "newOwner",
          "type": "address"
        }
      ],
      "name": "OwnershipTransferred",
      "type": "event"
    },
    {
      "anonymous": false,
      "inputs": [
        {
          "indexed": true,
          "internalType": "uint32",
          "name": "selectionId",
          "type": "uint32"
        },
        {
          "indexed": false,
          "internalType": "uint8",
          "name": "position",
          "type": "uint8"
        },
        {
          "indexed": false,
          "internalType": "uint16",
          "name": "impliedOdds",
          "type": "uint16"
        }
      ],
      "name": "SelectionOutcomeUpdated",
      "type": "event"
    },
    {
      "inputs": [
        {
          "internalType": "uint32",
          "name": "",
          "type": "uint32"
        }
      ],
      "name": "bets",
      "outputs": [
        {
          "internalType": "uint256",
          "name": "stake",
          "type": "uint256"
        },
        {
          "internalType": "uint16",
          "name": "odds",
          "type": "uint16"
        },
        {
          "internalType": "uint32",
          "name": "selectionId",
          "type": "uint32"
        },
        {
          "internalType": "address",
          "name": "user",
          "type": "address"
        }
      ],
      "stateMutability": "view",
      "type": "function"
    },
    {
      "inputs": [
        {
          "internalType": "uint32",
          "name": "selectionId",
          "type": "uint32"
        }
      ],
      "name": "clearSelectionOutcome",
      "outputs": [],
      "stateMutability": "nonpayable",
      "type": "function"
    },
    {
      "inputs": [],
      "name": "owner",
      "outputs": [
        {
          "internalType": "address",
          "name": "",
          "type": "address"
        }
      ],
      "stateMutability": "view",
      "type": "function"
    },
    {
      "inputs": [
        {
          "internalType": "uint32",
          "name": "betId",
          "type": "uint32"
        },
        {
          "internalType": "uint256",
          "name": "stake",
          "type": "uint256"
        },
        {
          "internalType": "uint16",
          "name": "odds",
          "type": "uint16"
        },
        {
          "internalType": "uint32",
          "name": "selectionId",
          "type": "uint32"
        }
      ],
      "name": "placeBet",
      "outputs": [],
      "stateMutability": "nonpayable",
      "type": "function"
    },
    {
      "inputs": [],
      "name": "renounceOwnership",
      "outputs": [],
      "stateMutability": "nonpayable",
      "type": "function"
    },
    {
      "inputs": [
        {
          "internalType": "uint32",
          "name": "",
          "type": "uint32"
        }
      ],
      "name": "selectionOutcomes",
      "outputs": [
        {
          "internalType": "uint8",
          "name": "position",
          "type": "uint8"
        },
        {
          "internalType": "uint16",
          "name": "impliedOdds",
          "type": "uint16"
        }
      ],
      "stateMutability": "view",
      "type": "function"
    },
    {
      "inputs": [
        {
          "internalType": "uint32",
          "name": "selectionId",
          "type": "uint32"
        },
        {
          "internalType": "uint8",
          "name": "position",
          "type": "uint8"
        },
        {
          "internalType": "uint16",
          "name": "impliedOdds",
          "type": "uint16"
        }
      ],
      "name": "setSelectionOutcome",
      "outputs": [],
      "stateMutability": "nonpayable",
      "type": "function"
    },
    {
      "inputs": [
        {
          "internalType": "uint32",
          "name": "betId",
          "type": "uint32"
        }
      ],
      "name": "settleBet",
      "outputs": [
        {
          "internalType": "bool",
          "name": "success",
          "type": "bool"
        }
      ],
      "stateMutability": "nonpayable",
      "type": "function"
    },
    {
      "inputs": [
        {
          "internalType": "address",
          "name": "newOwner",
          "type": "address"
        }
      ],
      "name": "transferOwnership",
      "outputs": [],
      "stateMutability": "nonpayable",
      "type": "function"
    }
  ],
  "bytecode": "0x60806040523461002b5761001a6100146100f4565b91610218565b6040516115a26103a682396115a290f35b600080fd5b634e487b7160e01b600052604160045260246000fd5b90601f01601f191681019081106001600160401b0382111761006757604052565b610030565b9061008061007960405190565b9283610046565b565b6001600160a01b031690565b90565b61009a81610082565b0361002b57565b9050519061008082610091565b60ff811661009a565b90505190610080826100ae565b909160608284031261002b5761008e6100dd84846100a1565b9360406100ed82602087016100a1565b94016100b7565b610112611948803803806101078161006c565b9283398101906100c4565b909192565b61008261008e61008e9290565b61008e90610117565b6020808252601d908201527f546f6b656e20616464726573732063616e6e6f74206265207a65726f21000000604082015260600190565b1561016b57565b60405162461bcd60e51b8152806101846004820161012d565b0390fd5b61008e90610082906001600160a01b031682565b61008e90610188565b61008e9061019c565b90610100600160a81b039060081b5b9181191691161790565b906101d761008e6101de926101a5565b82546101ae565b9055565b9060ff906101bd565b6101fb61008e61008e9260ff1690565b60ff1690565b9061021161008e6101de926101eb565b82546101e2565b610256610080939261022c61025d9361029c565b61025161024161023c6000610124565b610082565b61024a83610082565b1415610164565b6101a5565b60026101c7565b6002610201565b61008e61008e61008e9290565b61008e6001610264565b90600019906101bd565b9061029561008e6101de92610264565b825461027b565b6102a5906102d4565b6100806102b0610271565b6001610285565b6102c090610082565b9052565b60208101929161008091906102b7565b60006102df81610124565b6102e881610082565b6102f184610082565b1461030157505061008090610353565b631e4fbdf760e01b8252819061018490600483016102c4565b61008e90610082565b61008e905461031a565b906001600160a01b03906101bd565b9061034c61008e6101de926101a5565b825461032d565b61037461036e6103636000610323565b61025184600061033c565b916101a5565b907f8be0079c531659141344cd1fd0a4f28419497f9722a3daafe3b4186f6b6457e061039f60405190565b600090a356fe6080604052600436101561001257600080fd5b60003560e01c8063034d4960146100a257806303f226141461009d578063672d3a7414610098578063715018a614610093578063776199861461008e5780637b2542b9146100895780638da5cb5b14610084578063ea335ea81461007f5763f2fde38b036100a757610479565b610433565b6103bd565b61037c565b610264565b61024c565b610228565b61018a565b6100e1565b600080fd5b63ffffffff81165b036100a757565b905035906100c8826100ac565b565b906020828203126100a7576100de916100bb565b90565b346100a7576100f96100f43660046100ca565b61056b565b60405180805b0390f35b6101166100de6100de9263ffffffff1690565b63ffffffff1690565b9061012990610103565b600052602052604060002090565b6100de905b60ff1690565b6100de9054610137565b6100de9060081c5b61ffff1690565b6100de905461014c565b61017090600461011f565b906100de600061017f84610142565b930161015b565b9052565b346100a7576101a261019d3660046100ca565b610165565b906100ff6101af60405190565b60ff909216825261ffff90921660208201529081906040820190565b60ff81166100b4565b905035906100c8826101cb565b61ffff81166100b4565b905035906100c8826101e1565b90916060828403126100a7576100de61021184846100bb565b93604061022182602087016101d4565b94016101eb565b346100a7576100f961023b3660046101f8565b916106f2565b60009103126100a757565b346100a75761025c366004610241565b6100f9610735565b346100a7576100ff61027f61027a3660046100ca565b610ca2565b60405191829182901515815260200190565b6100de9081565b6100de9054610291565b6100de90610154565b6100de90546102a2565b6100de9060101c610116565b6100de90546102b5565b6001600160a01b031690565b6100de9060301c6102cb565b6102cb565b6100de90546102d7565b6102fd90600361011f565b9061030782610298565b91610314600182016102ab565b916100de60016103258185016102c1565b93016102e8565b6100de906102cb565b6101869061032c565b6103756100c89461036860609498979561035d608086019a6000870152565b61ffff166020850152565b63ffffffff166040830152565b0190610335565b346100a7576100ff6103976103923660046100ca565b6102f2565b906103a494929460405190565b9485948561033e565b6020810192916100c89190610335565b346100a7576103cd366004610241565b6100ff6103d8610cb7565b604051918291826103ad565b806100b4565b905035906100c8826103e4565b6080818303126100a75761040b82826100bb565b926100de61041c84602085016103ea565b93606061042c82604087016101eb565b94016100bb565b346100a7576100f96104463660046103f7565b92919091611046565b6100b48161032c565b905035906100c88261044f565b906020828203126100a7576100de91610458565b346100a7576100f961048c366004610465565b6110a4565b6100c89061049d6110ad565b610525565b61013c6100de6100de9290565b156104b657565b60405162461bcd60e51b815260206004820152601960248201527814d95b1958dd1a5bdb881bdd5d18dbdb59481b9bdd081cd95d603a1b604482015280606481015b0390fd5b634e487b7160e01b600052600060045260246000fd5b906000036105205760009055565b6104fc565b60006105666100c89261055f6105468461054084600461011f565b01610142565b610559610552866104a2565b9160ff1690565b116104af565b600461011f565b610512565b6100c890610491565b906100c892916105826110ad565b610689565b634e487b7160e01b600052604160045260246000fd5b90601f01601f191681019081106001600160401b038211176105be57604052565b610587565b906100c86105d060405190565b928361059d565b6100de60406105c3565b9060ff905b9181191691161790565b61013c6100de6100de9260ff1690565b906106106100de610617926105f0565b82546105e1565b9055565b9062ffff009060081b6105e6565b6101546100de6100de9261ffff1690565b9061064a6100de61061792610629565b825461061b565b6100c8916106799060209061067061066a825160ff1690565b85610600565b015161ffff1690565b9061063a565b906100c891610651565b916106e07fe9b29d792a9405688baf68c8fbd5d83724c808b47931b1b304d21d4815c2d9c192936106db6106bb6105d7565b60ff8716815261ffff851660208201526106d683600461011f565b61067f565b610103565b926106ed6101af60405190565b0390a2565b906100c89291610574565b6107056110ad565b6100c8610723565b6102e36100de6100de9290565b6100de9061070d565b6100c8610730600061071a565b61110f565b6100c86106fd565b9061074f9161074a61116b565b610992565b906100c86111b5565b906101869061032c565b6100de60806105c3565b906100c86107c8600161077d610762565b9461078e61078a82610298565b8752565b6107a761079c8383016102ab565b61ffff166020880152565b6107c26107b58383016102c1565b63ffffffff166040880152565b016102e8565b60608401610758565b6100de9061076c565b6100de905161032c565b156107eb57565b60405162461bcd60e51b8152602060048201526017602482015276151a1a5cc818995d08191bd95cc81b9bdd08195e1a5cdd604a1b6044820152606490fd5b1561083157565b60405162461bcd60e51b815260206004820152602d60248201527f556e617574686f72697a65643a206f6e6c79206f776e6572206f72206265747460448201526c6f722063616e20736574746c6560981b6064820152608490fd5b1561089357565b60405162461bcd60e51b815260206004820152602260248201527f4f7574636f6d65206e6f742073657420666f7220746869732073656c6563746960448201526137b760f11b6064820152608490fd5b9160001960089290920291821b911b6105e6565b6100de6100de6100de9290565b91906109156100de610617936108f7565b9083546108e3565b6100c891600091610904565b600090600190610939838261091d565b0155565b90600003610520576100c890610929565b6102e36100de6100de926102cb565b6100de9061094e565b6100de9061095d565b6101546100de6100de9290565b6100de9060081c6102cb565b6100de905461097c565b5060036109a76109a2838361011f565b6107d1565b906060820191836109b7846107da565b926109df6000946109d86109d26109cd8861071a565b61032c565b9161032c565b14156107e4565b6109ea6109cd610cb7565b6109f33361032c565b148015610c81575b610a049061082a565b604083016004610a3b610a2887610540610a22865163ffffffff1690565b8561011f565b610a34610552896104a2565b141561088c565b610a5686610540610a50855163ffffffff1690565b8461011f565b610a6060326104a2565b60ff82161115610b195750505083610ab793610a8f610abd96610a8a610ac39996610ab29661011f565b61093d565b610aac610a9c6002610988565b92610aa6866107da565b92015190565b9161125b565b6107da565b92610103565b91610966565b9060008051602061154d833981519152610adc60405190565b6020808252601b908201527a2132ba103b37b4b232b2161039ba30b5b2903932ba3ab93732b21760291b604082015280606081015b0390a3600190565b610b2e610552600198969497989593956104a2565b03610c245794610ab79484610ab294610b55610ba39a97610a8a610b8a97610abd9c61011f565b602084015161ffff169283610b74610b6c8561096f565b9161ffff1690565b14610bf6575b5050909101516111f2565b6111f2565b610b946002610988565b610b9d846107da565b9061125b565b9060008051602061154d833981519152610bbc60405190565b6020808252601c908201527b42657420776f6e202d207061796f7574207375636365737366756c2160201b60408201528060608101610b11565b610b859350610c17610c1d92610c1185935163ffffffff1690565b9061011f565b0161015b565b9138610b7a565b610abd9550610ab79450610ab29250610c42969391610a8a9161011f565b9060008051602061154d833981519152610c5b60405190565b60208082526008908201526710995d081b1bdcdd60c21b60408201528060608101610b11565b50610a04610c916109cd876107da565b610c9a3361032c565b1490506109fb565b6100de90600061073d565b6100de905461032c565b6100de6000610cad565b90610cd5939291610cd061116b565b610ee1565b6100c86111b5565b15610ce457565b60405162461bcd60e51b815260206004820152602160248201527f54686973206265742068617320616c7265616479206265656e20706c616365646044820152602160f81b6064820152608490fd5b15610d3a57565b60405162461bcd60e51b81526020600482015260156024820152745374616b652063616e6e6f74206265207a65726f2160581b6044820152606490fd5b15610d7e57565b60405162461bcd60e51b815260206004820152603560248201527f4f646473206d75737420626520696d706c6965642074797065204f5220666978604482015274656420747970652028312e30302d3530302e30302960581b6064820152608490fd5b90600019906105e6565b90610dfb6100de610617926108f7565b8254610de1565b9061ffff906105e6565b90610e1c6100de61061792610629565b8254610e02565b9065ffffffff00009060101b6105e6565b90610e446100de61061792610103565b8254610e23565b90600160301b600160d01b039060301b6105e6565b90610e706100de61061792610966565b8254610e4b565b90610ed1606060016100c894610e97610e91600087015190565b82610deb565b0192610eb1610eab602083015161ffff1690565b85610e0c565b610ecb610ec5604083015163ffffffff1690565b85610e34565b016107da565b90610e60565b906100c891610e77565b917f956756997b62611747930036f89443fbd4f9b9ca9c5f5d9e30d82fd14203c88291610fa9610f1760016107c287600361011f565b610f32600091610f2c6109d26109cd8561071a565b14610cdd565b610f45610f3e826108f7565b8411610d33565b610f4e8161096f565b61ffff8516148015611012575b610f6490610d77565b610f7683610f70610762565b92830152565b61ffff8416602082015263ffffffff87166040820152610f993360608301610758565b610fa486600361011f565b610ed7565b610fc881610fb76002610988565b610fc030610966565b9033906112cd565b61100d610fdd610fd733610966565b95610103565b95610fe760405190565b9384938490815261ffff91909116602082015263ffffffff909116604082015260600190565b0390a3565b5061101d606461096f565b61ffff8516118015610f5b5750610f6461103861c35061096f565b61ffff861611159050610f5b565b906100c8939291610cc1565b6100c89061105e6110ad565b60006110698161071a565b6110728161032c565b61107b8461032c565b1461108b5750506100c89061110f565b631e4fbdf760e01b825281906104f890600483016103ad565b6100c890611052565b6110b5610cb7565b33906110c36109d28361032c565b036110cb5750565b63118cdaa760e01b6000908152906110e49060046103ad565b036000fd5b906001600160a01b03906105e6565b906111086100de61061792610966565b82546110e9565b61112f610abd61111f6000610cad565b61112a8460006110f8565b610966565b907f8be0079c531659141344cd1fd0a4f28419497f9722a3daafe3b4186f6b6457e061115a60405190565b808061100d565b6100de60026108f7565b6111756001610298565b61117d611161565b908190611189565b9190565b14611199576100c8906001610deb565b633ee5aeb560e01b6000908152600490fd5b6100de60016108f7565b6100c86111c06111ab565b6001610deb565b6100de60646104a2565b6100de6100de6100de9261ffff1690565b6100de6100de6100de9260ff1690565b6100de9161121061120a6112046111c7565b926111d1565b916111e2565b9161133c565b61122f6112296100de9263ffffffff1690565b60e01b90565b6001600160e01b03191690565b9160206100c892949361125760408201966000830190610335565b0152565b61129e60049261128f6100c89561127563a9059cbb611216565b9261127f60405190565b968794602086019081520161123c565b6020820181038252038361059d565b611474565b6040906112576100c894969593966112c360608401986000850190610335565b6020830190610335565b9061129e9061128f6100c8956004956112e96323b872dd611216565b936112f360405190565b97889560208701908152016112a3565b634e487b7160e01b600052601260045260246000fd5b8115611323570490565b611303565b6100de60126108f7565b6100de60116108f7565b9060009161134a828261150b565b929091600094611359866108f7565b84146114655783871115611439578593876113a9946113bc97946001946100de9b9a50500990838211900392039561139881611394876108f7565b0390565b811680808093049804950304010290565b17916113bc6113c0826113bc60036108f7565b0290565b61139461143361142d61141e61140f6114006113f16002976113e1896108f7565b186113bc8b82026113948b6108f7565b6113bc8a82026113948a6108f7565b6113bc898202611394896108f7565b6113bc888202611394886108f7565b6113bc878202611394876108f7565b80950290565b916108f7565b61146087611449611185896108f7565b14611452611328565b61145a611332565b9161151f565b61153b565b505050506100de929150611319565b906000602091611482600090565b50828151910182855af1156114ff573d906000516000926114a5611185856108f7565b036114eb57506114b481610966565b3b6114c1611185846108f7565b145b6114cb575050565b6104f86114d88392610966565b635274afe760e01b8352600483016103ad565b6114f861118560016108f7565b14156114c3565b6040513d6000823e3d90fd5b906000198183099102908180821091030391565b6113bc836115379361152f600090565b501891151590565b1890565b634e487b716000526020526024601cfdfe8fe42308c6f82f7ab2f5e6928b910a862b18c150e427c3ac0e749e2f7c51867fa26469706673582212208decc9338beba0b7be1ab2d8d4a92fd7d308d1ec6d139b6cdcb7b549da9a5a6864736f6c634300081c0033",
  "linkReferences": {},
  "deployedLinkReferences": {}
}